:100000000C9434000C9451000C9451000C94510049
:100010000C9451000C9451000C9451000C9451001C
:100020000C9451000C9451000C9451000C9451000C
:100030000C9451000C9451000C9451000C945100FC
:100040000C9451000C9451000C9451000C945100EC
:100050000C9451000C9451000C9451000C945100DC
:100060000C9451000C94510011241FBECFEFD8E026
:10007000DEBFCDBF11E0A0E0B1E0E4EBF0E102C0F3
:1000800005900D92AA39B107D9F721E0AAE9B1E0AC
:1000900001C01D92AE39B207E1F70E94C2030C9471
:1000A00058080C94000087B1817F87B9089584B106
:1000B000846084B984B1886084B984B1816084B972
:1000C0000895CF93DF931F92CDB7DEB70E948800CB
:1000D0000E94F0000E9427010E9467040E945300C2
:1000E0000E9457000E944F040E940404198261E09C
:1000F000CE0101960E94340440E050E069E371E0D3
:1001000082E091E00E94E5010F90DF91CF91089588
:100110001092B90088E48093B80084E08093BC001A
:10012000089584EA8093BC008091BC008823E4F7A2
:10013000089584E98093BC008091BC0084FDFCCFCD
:1001400008958093BB0084E88093BC008091BC003C
:100150008823E4F708950F931F93CF93DF93D82F4D
:10016000D07FD62B0D2F086020E1829FC001112483
:10017000C62FC82B1C2F18600E9491008EE40E948D
:10018000A100802F0E94A1008D2F8C600E94A100F1
:10019000802F0E94A100812F0E94A1008C2F8C60D3
:1001A0000E94A100812F0E94A1000E949900DF916E
:1001B000CF911F910F91089560E00E94AB008FE3F3
:1001C0009FE10197F1F700C00000089561E00E94EF
:1001D000AB008FE39FE10197F1F700C000000895A5
:1001E0002FEF80E792E0215080409040E1F700C07F
:1001F000000083E00E94DC008FE19EE40197F1F7AC
:1002000000C0000083E00E94DC0087E592E00197D7
:10021000F1F700C0000083E00E94DC0082E00E9451
:10022000DC0088E20E94DC0088E00E94DC0081E0C3
:100230000E94DC008FE39FE10197F1F700C000000E
:1002400086E00E94DC008CE00E94DC00089581E0E2
:100250000E94DC008FE39FE10197F1F700C00000EE
:100260000895CF93DF9300D000D0CDB7DEB71982C9
:1002700090E49A8394E19B8394E59C83E1E0F0E031
:10028000EC0FFD1FE60FF11D9081890F80680E9421
:10029000DC000F900F900F900F90DF91CF91089599
:1002A000CF93DF93D82F682F80E00E943101C0E008
:1002B00004C080E20E94E600CF5FC031D0F36D2F12
:1002C00080E00E943101DF91CF910895CF93DF93B9
:1002D000EC0103C021960E94E60088818111FACFCB
:1002E000DF91CF910895AF92BF92CF92DF92EF92BC
:1002F000FF920F931F93CF93DF93CDB7DEB7FC012F
:100300000DB71EB7DC010D900020E9F711979D0194
:10031000281B390B80919B0190E001966FEF70E0F4
:100320000E94310580939B019DEC899F912D1124A2
:1003300092959F70990F990F492F440F440F940F76
:10034000981307C081E090919A01911180E0809309
:100350009A0180919A01882329F1CDB6DEB6790100
:10036000FF24C70101962DB73EB7281B390B0FB6E6
:10037000F8943EBF0FBE2DBF8DB79EB701965C01AE
:10038000A70160E270E00E945905F501EE0DFF1D26
:100390001082C5010E9466010FB6F894DEBE0FBE42
:1003A000CDBE03C0CF010E9466010FB6F8941EBFF8
:1003B0000FBE0DBFDF91CF911F910F91FF90EF9076
:1003C000DF90CF90BF90AF900895EF92FF920F9380
:1003D0001F93CF93DF938C017B01EA0160E080E003
:1003E0000E943101C8010E94660161E080E00E9424
:1003F0003101219721F4C7010E94730103C0C70195
:100400000E946601DF91CF911F910F91FF90EF90B5
:100410000895CF93DF93EC0160E080E00E9431010A
:1004200080E00E945001CE010E946601DF91CF91D1
:10043000089590E0983078F4282F30E0092E02C01B
:10044000359527950A94E2F720FF03C081E0890FD4
:1004500008959F5FEFCF8FEF089585B1816085B9D3
:100460000895CF93DF93CDB7DEB761970FB6F894B9
:10047000DEBF0FBECDBF1816CCF4282F082E000CFF
:10048000330B3F938F9382E191E09F938F931F9261
:1004900081E18F93CE0101969F938F930E94600517
:1004A0000FB6F894DEBF0FBECDBF13C086E291E059
:1004B0009F938F931F9281E18F93CE0101969F931B
:1004C0008F930E9460050F900F900F900F900F90E8
:1004D0000F9040E050E0BE016F5F7F4F8AE391E0F4
:1004E0000E94E50161960FB6F894DEBF0FBECDBF46
:1004F000DF91CF910895181664F4082E000C990B23
:10050000019791E001C0990F8A95EAF790939D01B8
:1005100002C010929D0180919D010E940B040E94D7
:100520002C040895809301010E9431028091010101
:100530000E947B0208950F931F93CF93DF93CDB753
:10054000DEB761970FB6F894DEBF0FBECDBF9091B6
:100550009C0191112CC0181654F590910101891736
:1005600031F10E94920280910101282F082E000C87
:10057000330B3F938F9382E191E09F938F931F9270
:1005800081E18F938E010F5F1F4F1F930F930E9486
:1005900060050E94270140E050E0B8018AE391E045
:1005A0000E94E5010FB6F894DEBF0FBECDBF619685
:1005B0000FB6F894DEBF0FBECDBFDF91CF911F9174
:1005C0000F910895CF93DF93CDB7DEB761970FB644
:1005D000F894DEBF0FBECDBF8091010118160CF05C
:1005E000A2C086B181FB222720F930E082FB44279C
:1005F00040F950E09091000183FD30C0903271F1DC
:1006000080E28093000181E080939C0185B1846049
:1006100085B985B1877F85B96091010140E080E2AD
:100620000E94FD04882319F089E491E002C08CE463
:1006300091E09F938F9381E591E09F938F931F9219
:1006400081E18F93CE0101969F938F930E94600565
:100650000FB6F894DEBF0FBECDBF61C0232B81F56E
:10066000913271F181E28093000181E080939C01DD
:1006700085B1886085B985B18B7F85B960910101AD
:1006800040E081E20E94FD04882319F089E491E0B2
:1006900002C08CE491E09F938F938DE591E09F934E
:1006A0008F931F9281E18F93CE0101969F938F9339
:1006B0000E9460050FB6F894DEBF0FBECDBF2FC0FD
:1006C000452B89F5903379F180E3809300011092F6
:1006D0009C0185B18B7F85B985B1877F85B940E065
:1006E00060E080E30E94FD04882319F089E491E032
:1006F00002C08CE491E09F938F9386E691E09F93F4
:100700008F931F9281E18F93CE0101969F938F93D8
:100710000E9460050FB6F894DEBF0FBECDBFCE01BC
:1007200001960E94090261960FB6F894DEBF0FBED3
:10073000CDBFDF91CF9108950E94270140E050E0A6
:100740006FE671E08DE791E00E94E5010895CF9397
:10075000DF9300D000D000D0CDB7DEB7CE01019638
:100760000E94D004882329F08A81823311F40E94E8
:100770009C0326960FB6F894DEBF0FBECDBFDF9167
:10078000CF9108950E9461000E9488000E94F000AD
:100790000E94270140E050E064E871E081E991E0C7
:1007A0000E94E5010E942D0240E060E080E30E948B
:1007B000FD040E94E50380950E9419020E949B029D
:1007C0000E94E2020E94A703F4CF8BB18F7B8BB90A
:1007D00000C000C000008BB180648BB920E080E0D5
:1007E00010C0880F9BB19F7D9BB900C000C0000066
:1007F0004F9981609BB190629BB900C000C000001E
:100800002F5F283070F308958AB18C618AB98BB15B
:10081000837E8BB9089590E01CC047E050E0491BEF
:100820005109282F30E002C0359527954A95E2F707
:1008300020FF04C02BB124602BB903C02BB12B7F48
:100840002BB92BB128602BB900002BB1277F2BB916
:100850009F5F983010F308958BB180618BB90000D1
:100860008BB18F7E8BB908950F931F93CF93DF9336
:100870008C01D62F85B1816085B9C0E007C0F80131
:10088000EC0FF11D80810E940B04CF5FCD17B8F3F0
:100890000E942C04DF91CF911F910F910895CF9367
:1008A000DF931F92CDB7DEB78AB180668AB98AB16D
:1008B0008F778AB98BB18F778BB9198261E0CE01BE
:1008C00001960E9434040F90DF91CF910895109209
:1008D000C50087E68093C40088E18093C10086E06C
:1008E0008093C20008959091C00095FFFCCF809343
:1008F000C600089588EA91E602C0019739F0209178
:10090000C0002223D4F78091C60008958FEF089588
:10091000AC0130E08FEF14C0FA01E30FF11D9081BC
:10092000892720E00AC0882334F490E0880F991FBB
:1009300097E0892701C0880F2F5F2830A0F33F5F21
:10094000361750F308951F93CF93DF9300D000D054
:1009500000D0CDB7DEB792E099838A836B834C8356
:1009600063E0CE0102960E9488048D8383E08E832B
:1009700010E00AC0E1E0F0E0EC0FFD1FE10FF11D17
:1009800080810E9473041F5F1630A0F326960FB675
:10099000F894DEBF0FBECDBFDF91CF911F910895B8
:1009A0000F931F93CF938C010E947A048230E1F45D
:1009B000F8018083C1E007C00E947A04F801EC0FBF
:1009C000F11D8083CF5FC630B8F3F8018581833095
:1009D00069F463E0C80101960E948804F8019481DB
:1009E000891731F080E005C080E003C080E001C0DD
:1009F00081E0CF911F910F910895EF92FF920F9395
:100A00001F93CF93DF9300D000D000D0CDB7DEB7D7
:100A1000082FE62EF42E10E012C04F2D6E2D802FE1
:100A20000E94A304CE0101960E94D004882331F0D5
:100A30008A81803419F48B81081729F01F5F1330E5
:100A400060F380E001C081E026960FB6F894DEBF27
:100A50000FBECDBFDF91CF911F910F91FF90EF900F
:100A6000089597FB072E16F4009407D077FD09D060
:100A70000E94450507FC05D03EF4909581959F4F57
:100A80000895709561957F4F0895AA1BBB1B51E196
:100A900007C0AA1FBB1FA617B70710F0A61BB70BEE
:100AA000881F991F5A95A9F780959095BC01CD0193
:100AB0000895DC0101C06D9341505040E0F7089566
:100AC000AEE0B0E0E6E6F5E00C942F080D891E8953
:100AD0008F89988D26E02C831A83098397FF02C0A3
:100AE00080E090E801979E838D83AE01455E5F4F65
:100AF000698D7A8DCE0101960E9490054D815E81AF
:100B000057FD0AC02F813885421753070CF49A010C
:100B1000F801E20FF31F10822E96E4E00C944B08CC
:100B2000ABE0B0E0E6E9F5E00C9421086C017B0154
:100B30008A01FC0117821682838181FFCCC1CE011C
:100B400001963C01F6019381F70193FD859193FF96
:100B500081917F01882309F4BAC1853239F493FD6C
:100B6000859193FF81917F01853229F4B60190E050
:100B70000E948707E7CF912C212C312CFFE1F31540
:100B8000D8F08B3279F038F4803279F08332A1F4E6
:100B9000232D20611DC08D3261F0803369F4232D37
:100BA000216016C0832D8260382EE32DE4603E2E36
:100BB0002AC0F32DF8601DC037FC2DC020ED280F92
:100BC0002A3040F08E32B9F436FC81C1232D2064E6
:100BD000322E19C036FE06C08AE0989E200D1124E0
:100BE000922E11C0EAE02E9E200D1124222EF32D0C
:100BF000F0623F2E08C08C3621F4832D8068382E99
:100C000002C0883641F4F70193FD859193FF8191ED
:100C10007F018111B3CF982F9F7D9554933028F495
:100C20000C5F1F4F9FE399830DC0833631F08337EC
:100C300071F0833509F059C021C0F80180818983A2
:100C40000E5F1F4F88248394912C530113C02801F9
:100C5000F2E04F0E511CF801A080B18036FE03C0B7
:100C6000692D70E002C06FEF7FEFC5010E947C0725
:100C70004C018201F32DFF773F2E16C0280122E0A0
:100C8000420E511CF801A080B18036FE03C0692DD0
:100C900070E002C06FEF7FEFC5010E9471074C0149
:100CA000F32DF0683F2E820133FC1BC0822D90E0B3
:100CB00088169906B0F4B60180E290E00E9487079A
:100CC0002A94F4CFF50137FC859137FE81915F01BD
:100CD000B60190E00E94870721102A9421E0821A31
:100CE00091088114910471F7E8C0843611F08936B7
:100CF00041F5F80137FE07C06081718182819381DF
:100D00000C5F1F4F08C060817181072E000C880B9B
:100D1000990B0E5F1F4FF32DFF763F2E97FF09C0F3
:100D200090958095709561957F4F8F4F9F4FF0689C
:100D30003F2E2AE030E0A3010E94C307882E8618C8
:100D400045C0853731F4232D2F7EB22E2AE030E0C6
:100D500025C0932D997FB92E8F36C1F018F48835B0
:100D600079F0B5C0803719F0883721F0B0C0E92F8D
:100D7000E061BE2EB4FE0DC0FB2DF460BF2E09C095
:100D800034FE0AC0292F2660B22E06C028E030E0CB
:100D900005C020E130E002C020E132E0F801B7FEFA
:100DA00007C060817181828193810C5F1F4F06C0F3
:100DB0006081718180E090E00E5F1F4FA3010E946F
:100DC000C307882E8618FB2DFF773F2E36FE0DC0F9
:100DD000232D2E7FA22E891458F434FE0BC032FC32
:100DE00009C0832D8E7EA82E05C0B82CA32C03C06D
:100DF000B82C01C0B92CA4FE0FC0FE01E80DF11DF6
:100E00008081803321F49A2D997EA92E09C0A2FEFB
:100E100006C0B394B39404C08A2D867809F0B394C5
:100E2000A3FC11C0A0FE06C0B21488F4280C922CBA
:100E30009B180EC0B21460F4B60180E290E00E94EC
:100E40008707B394F7CFB21418F42B1802C0982C6C
:100E5000212CA4FE10C0B60180E390E00E94870719
:100E6000A2FE17C0A1FC03C088E790E002C088E59D
:100E700090E0B6010CC08A2D867859F0A1FE02C020
:100E80008BE201C080E2A7FC8DE2B60190E00E94F7
:100E90008707891438F4B60180E390E00E94870741
:100EA0009A94F7CF8A94F301E80DF11D8081B60181
:100EB00090E00E9487078110F5CF222009F442CEEE
:100EC000B60180E290E00E9487072A94F6CFF601EF
:100ED0008681978102C08FEF9FEF2B96E2E10C9401
:100EE0003D08FC010590615070400110D8F78095D5
:100EF00090958E0F9F1F0895FC01615070400190E6
:100F00000110D8F7809590958E0F9F1F08950F932D
:100F10001F93CF93DF93FB01238121FD03C08FEF4C
:100F20009FEF2CC022FF16C0468157812481358156
:100F30004217530744F4A081B1819D012F5F3F4FB9
:100F4000318320838C93268137812F5F3F4F3783F6
:100F5000268314C08B01EC01FB010084F185E02D98
:100F60000995892BE1F6D80116968D919C911797DA
:100F7000019617969C938E931697CE01DF91CF9191
:100F80001F910F910895FA01AA27283051F12031BD
:100F900081F1E8946F936E7F6E5F7F4F8F4F9F4F0D
:100FA000AF4FB1E03ED0B4E03CD0670F781F891F4F
:100FB0009A1FA11D680F791F8A1F911DA11D6A0F1D
:100FC000711D811D911DA11D20D009F468943F91D0
:100FD0002AE0269F11243019305D3193DEF6CF01CF
:100FE0000895462F4770405D4193B3E00FD0C9F795
:100FF000F6CF462F4F70405D4A3318F0495D31FD02
:101000004052419302D0A9F7EACFB4E0A695979554
:10101000879577956795BA95C9F70097610571052A
:1010200008959B01AC010A2E069457954795379574
:101030002795BA95C9F7620F731F841F951FA01DCE
:1010400008952F923F924F925F926F927F928F926C
:101050009F92AF92BF92CF92DF92EF92FF920F9347
:101060001F93CF93DF93CDB7DEB7CA1BDB0B0FB651
:10107000F894DEBF0FBECDBF09942A88398848880E
:101080005F846E847D848C849B84AA84B984C884A4
:10109000DF80EE80FD800C811B81AA81B981CE0F9B
:1010A000D11D0FB6F894DEBF0FBECDBFED01089580
:0410B000F894FFCFE2
:1010B40030FF57616974696E6720666F7220436DF3
:1010C40064005441424C453A20252D3264202020AE
:1010D4002020202020005441424C453A202D20203D
:1010E4002020202020202020200053656C6563747C
:1010F40020636F6D6D616E64004F4B004641494C37
:1011040000464F52574152443A202573004241430E
:101114004B3A2025730053544F503A2025730073E3
:10112400686F727420636972637569740045525202
:101134004F52210053656C656374207461626C6561
:0A1144000057656C636F6D650000D5
:00000001FF
