:100000000C9434000C9451000C9451000C94510049
:100010000C9451000C9451000C9451000C9451001C
:100020000C9451000C9451000C9451000C9451000C
:100030000C9451000C9451000C9451000C945100FC
:100040000C9451000C9451000C9451000C945100EC
:100050000C9451000C9451000C9451000C945100DC
:100060000C9451000C94510011241FBECFEFD8E026
:10007000DEBFCDBF11E0A0E0B1E0E8E1FCE002C0EE
:1000800005900D92AA34B107D9F721E0AAE4B1E0B6
:1000900001C01D92AC34B207E1F70E9444020C94F7
:1000A0000A060C940000CF93DF931F92CDB7DEB702
:1000B0000E9479000E94E1000E9418010E94D7026C
:1000C0000E94BF020E94740284B1816084B91982C7
:1000D00061E0CE0101960E94A40240E050E068E495
:1000E00071E081E091E00E94C0010F90DF91CF911B
:1000F00008951092B90088E48093B80084E080935A
:10010000BC00089584EA8093BC008091BC008823E1
:10011000E4F7089584E98093BC008091BC0084FDDD
:10012000FCCF08958093BB0084E88093BC0080914D
:10013000BC008823E4F708950F931F93CF93DF93B8
:10014000D82FD07FD62B0D2F086020E1829FC001D1
:100150001124C62FC82B1C2F18600E9482008EE429
:100160000E949200802F0E9492008D2F8C600E942E
:100170009200802F0E949200812F0E9492008C2F6B
:100180008C600E949200812F0E9492000E948A003F
:10019000DF91CF911F910F91089560E00E949C0024
:1001A0008FE39FE10197F1F700C00000089561E03F
:1001B0000E949C008FE39FE10197F1F700C00000CF
:1001C00008952FEF80E792E0215080409040E1F7C2
:1001D00000C0000083E00E94CD008FE19EE4019703
:1001E000F1F700C0000083E00E94CD0087E592E0B7
:1001F0000197F1F700C0000083E00E94CD0082E08B
:100200000E94CD0088E20E94CD0088E00E94CD00CF
:1002100081E00E94CD008FE39FE10197F1F700C0DC
:10022000000086E00E94CD008CE00E94CD00089581
:1002300081E00E94CD008FE39FE10197F1F700C0BC
:1002400000000895CF93DF9300D000D0CDB7DEB784
:10025000198290E49A8394E19B8394E59C83E1E086
:10026000F0E0EC0FFD1FE60FF11D9081890F806813
:100270000E94CD000F900F900F900F90DF91CF91C3
:100280000895CF93DF93EC0103C021960E94D7001D
:1002900088818111FACFDF91CF910895AF92BF92FB
:1002A000CF92DF92EF92FF920F931F93CF93DF9342
:1002B000CDB7DEB7FC010DB71EB7DC010D900020F5
:1002C000E9F711979D01281B390B80914B0190E0B4
:1002D00001966FEF70E00E94E30280934B019DEC6A
:1002E000899F912D112492959F70990F990F492FF5
:1002F000440F440F940F981307C081E090914A0176
:10030000911180E080934A0180914A01882329F16C
:10031000CDB6DEB67901FF24C70101962DB73EB7F1
:10032000281B390B0FB6F8943EBF0FBE2DBF8DB7FB
:100330009EB701965C01A70160E270E00E940B038A
:10034000F501EE0DFF1D1082C5010E9441010FB69F
:10035000F894DEBE0FBECDBE03C0CF010E944101A6
:100360000FB6F8941EBF0FBE0DBFDF91CF911F9146
:100370000F91FF90EF90DF90CF90BF90AF900895D6
:10038000EF92FF920F931F93CF93DF938C017B012A
:10039000EA0160E080E00E942201C8010E94410160
:1003A00061E080E00E942201219721F4C7010E94B0
:1003B0004E0103C0C7010E944101DF91CF911F91FF
:1003C0000F91FF90EF900895CF93DF93CDB7DEB7F5
:1003D00061970FB6F894DEBF0FBECDBF90E00BC0A3
:1003E000282F30E0092E02C0359527950A94E2F7B0
:1003F00020FD04C09F5F983098F39FEF99231CF075
:100400009F5F90930001809100018823CCF0282FFA
:10041000082E000C330B3F938F9383E291E09F9360
:100420008F931F9281E18F93CE0101969F938F93BB
:100430000E9412030FB6F894DEBF0FBECDBF13C0EB
:1004400086E391E09F938F931F9281E18F93CE017A
:1004500001969F938F930E9412030F900F900F901D
:100460000F900F900F9061E080E00E942201CE017A
:1004700001960E94410161960FB6F894DEBF0FBE4F
:10048000CDBFDF91CF9108950E94530085B1816067
:1004900085B90E94550280950E94E40187EA91E6A1
:1004A0000197F1F700C00000F1CF8BB18F7B8BB9C2
:1004B00000C000C000008BB180648BB920E080E0F8
:1004C00010C0880F9BB19F7D9BB900C000C0000089
:1004D0004F9981609BB190629BB900C000C0000041
:1004E0002F5F283070F308958AB18C618AB98BB17F
:1004F000837E8BB9089590E01CC047E050E0491B13
:100500005109282F30E002C0359527954A95E2F72A
:1005100020FF04C02BB124602BB903C02BB12B7F6B
:100520002BB92BB128602BB900002BB1277F2BB939
:100530009F5F983010F308958BB180618BB90000F4
:100540008BB18F7E8BB908950F931F93CF93DF9359
:100550008C01D62F85B1816085B9C0E007C0F80154
:10056000EC0FF11D80810E947B02CF5FCD17B8F3A5
:100570000E949C02DF91CF911F910F910895CF931C
:10058000DF931F92CDB7DEB78AB180668AB98AB190
:100590008F778AB98BB18F778BB9198261E0CE01E1
:1005A00001960E94A4020F90DF91CF9108951092BE
:1005B000C50087E68093C40088E18093C10086E08F
:1005C0008093C200089597FB072E16F4009407D07D
:1005D00077FD09D00E94F70207FC05D03EF4909504
:1005E00081959F4F0895709561957F4F0895AA1B3F
:1005F000BB1B51E107C0AA1FBB1FA617B70710F00E
:10060000A61BB70B881F991F5A95A9F7809590953F
:10061000BC01CD010895DC0101C06D9341505040F3
:10062000E0F70895AEE0B0E0E8E1F3E00C94E10516
:100630000D891E898F89988D26E02C831A83098362
:1006400097FF02C080E090E801979E838D83AE0102
:10065000455E5F4F698D7A8DCE0101960E944203FF
:100660004D815E8157FD0AC02F813885421753079F
:100670000CF49A01F801E20FF31F10822E96E4E0C9
:100680000C94FD05ABE0B0E0E8E4F3E00C94D30596
:100690006C017B018A01FC0117821682838181FF34
:1006A000CCC1CE0101963C01F6019381F70193FD87
:1006B000859193FF81917F01882309F4BAC1853226
:1006C00039F493FD859193FF81917F01853229F45F
:1006D000B60190E00E943905E7CF912C212C312CF6
:1006E000FFE1F315D8F08B3279F038F4803279F0ED
:1006F0008332A1F4232D20611DC08D3261F080333F
:1007000069F4232D216016C0832D8260382EE32DDD
:10071000E4603E2E2AC0F32DF8601DC037FC2DC0CA
:1007200020ED280F2A3040F08E32B9F436FC81C11A
:10073000232D2064322E19C036FE06C08AE0989E12
:10074000200D1124922E11C0EAE02E9E200D1124BE
:10075000222EF32DF0623F2E08C08C3621F4832D1B
:100760008068382E02C0883641F4F70193FD8591E8
:1007700093FF81917F018111B3CF982F9F7D955475
:10078000933028F40C5F1F4F9FE399830DC083368D
:1007900031F0833771F0833509F059C021C0F80179
:1007A000808189830E5F1F4F88248394912C53018D
:1007B00013C02801F2E04F0E511CF801A080B18057
:1007C00036FE03C0692D70E002C06FEF7FEFC501F8
:1007D0000E942E054C018201F32DFF773F2E16C09B
:1007E000280122E0420E511CF801A080B18036FEA3
:1007F00003C0692D70E002C06FEF7FEFC5010E945A
:1008000023054C01F32DF0683F2E820133FC1BC001
:10081000822D90E088169906B0F4B60180E290E04F
:100820000E9439052A94F4CFF50137FC859137FEF3
:1008300081915F01B60190E00E94390521102A9450
:1008400021E0821A91088114910471F7E8C084367E
:1008500011F0893641F5F80137FE07C060817181DA
:10086000828193810C5F1F4F08C060817181072EC8
:10087000000C880B990B0E5F1F4FF32DFF763F2E58
:1008800097FF09C090958095709561957F4F8F4F28
:100890009F4FF0683F2E2AE030E0A3010E947505CB
:1008A000882E861845C0853731F4232D2F7EB22E31
:1008B0002AE030E025C0932D997FB92E8F36C1F004
:1008C00018F4883579F0B5C0803719F0883721F0F1
:1008D000B0C0E92FE061BE2EB4FE0DC0FB2DF46068
:1008E000BF2E09C034FE0AC0292F2660B22E06C0D2
:1008F00028E030E005C020E130E002C020E132E035
:10090000F801B7FE07C060817181828193810C5F1D
:100910001F4F06C06081718180E090E00E5F1F4F25
:10092000A3010E947505882E8618FB2DFF773F2EA8
:1009300036FE0DC0232D2E7FA22E891458F434FECE
:100940000BC032FC09C0832D8E7EA82E05C0B82CAA
:10095000A32C03C0B82C01C0B92CA4FE0FC0FE010B
:10096000E80DF11D8081803321F49A2D997EA92E06
:1009700009C0A2FE06C0B394B39404C08A2D867841
:1009800009F0B394A3FC11C0A0FE06C0B21488F411
:10099000280C922C9B180EC0B21460F4B60180E2B1
:1009A00090E00E943905B394F7CFB21418F42B18D5
:1009B00002C0982C212CA4FE10C0B60180E390E068
:1009C0000E943905A2FE17C0A1FC03C088E790E091
:1009D00002C088E590E0B6010CC08A2D867859F0F7
:1009E000A1FE02C08BE201C080E2A7FC8DE2B6014D
:1009F00090E00E943905891438F4B60180E390E054
:100A00000E9439059A94F7CF8A94F301E80DF11DFD
:100A10008081B60190E00E9439058110F5CF222037
:100A200009F442CEB60180E290E00E9439052A9492
:100A3000F6CFF6018681978102C08FEF9FEF2B964C
:100A4000E2E10C94EF05FC0105906150704001104B
:100A5000D8F7809590958E0F9F1F0895FC016150E7
:100A6000704001900110D8F7809590958E0F9F1FD0
:100A700008950F931F93CF93DF93FB01238121FDF3
:100A800003C08FEF9FEF2CC022FF16C04681578115
:100A9000248135814217530744F4A081B1819D011F
:100AA0002F5F3F4F318320838C93268137812F5FC7
:100AB0003F4F3783268314C08B01EC01FB01008478
:100AC000F185E02D0995892BE1F6D80116968D91D7
:100AD0009C911797019617969C938E931697CE012B
:100AE000DF91CF911F910F910895FA01AA27283025
:100AF00051F1203181F1E8946F936E7F6E5F7F4FEB
:100B00008F4F9F4FAF4FB1E03ED0B4E03CD0670F66
:100B1000781F891F9A1FA11D680F791F8A1F911DB9
:100B2000A11D6A0F711D811D911DA11D20D009F409
:100B300068943F912AE0269F11243019305D31934B
:100B4000DEF6CF010895462F4770405D4193B3E034
:100B50000FD0C9F7F6CF462F4F70405D4A3318F0DB
:100B6000495D31FD4052419302D0A9F7EACFB4E08C
:100B7000A6959795879577956795BA95C9F7009744
:100B80006105710508959B01AC010A2E06945795E5
:100B9000479537952795BA95C9F7620F731F841F3C
:100BA000951FA01D08952F923F924F925F926F92D2
:100BB0007F928F929F92AF92BF92CF92DF92EF92ED
:100BC000FF920F931F93CF93DF93CDB7DEB7CA1B6E
:100BD000DB0B0FB6F894DEBF0FBECDBF09942A8899
:100BE000398848885F846E847D848C849B84AA8441
:100BF000B984C884DF80EE80FD800C811B81AA81CE
:100C0000B981CE0FD11D0FB6F894DEBF0FBECDBF98
:080C1000ED010895F894FFCFF7
:100C1800FF57616974696E6720666F7220436D645F
:100C280000434D443A253033642054424C3A253031
:100C38003264005441424C453A202564202020204B
:100C48002020202020005441424C453A202D2020CD
:0A0C58002020202020202020000092
:00000001FF
