:100000000C9434000C9451000C9451000C94510049
:100010000C9451000C9451000C9451000C9451001C
:100020000C9451000C9451000C9451000C9451000C
:100030000C9451000C9451000C9451000C945100FC
:100040000C9451000C9451000C9451000C945100EC
:100050000C9451000C9451000C9451000C945100DC
:100060000C9451000C94510011241FBECFEFD8E026
:10007000DEBFCDBF11E0A0E0B1E0ECEAFFE002C0DE
:1000800005900D92AE38B107D9F721E0AEE8B1E0A6
:1000900001C01D92A139B207E1F70E94EE020C9453
:1000A000D4070C94000087B1817F87B9089584B18B
:1000B000846084B984B1886084B984B1816084B972
:1000C0000895CF93DF931F92CDB7DEB70E948800CB
:1000D0000E94F0000E9427010E94E3030E94530047
:1000E0000E9457000E94CB030E948003198261E0A6
:1000F000CE0101960E94B00340E050E069E371E058
:1001000082E091E00E94E5010F90DF91CF91089588
:100110001092B90088E48093B80084E08093BC001A
:10012000089584EA8093BC008091BC008823E4F7A2
:10013000089584E98093BC008091BC0084FDFCCFCD
:1001400008958093BB0084E88093BC008091BC003C
:100150008823E4F708950F931F93CF93DF93D82F4D
:10016000D07FD62B0D2F086020E1829FC001112483
:10017000C62FC82B1C2F18600E9491008EE40E948D
:10018000A100802F0E94A1008D2F8C600E94A100F1
:10019000802F0E94A100812F0E94A1008C2F8C60D3
:1001A0000E94A100812F0E94A1000E949900DF916E
:1001B000CF911F910F91089560E00E94AB008FE3F3
:1001C0009FE10197F1F700C00000089561E00E94EF
:1001D000AB008FE39FE10197F1F700C000000895A5
:1001E0002FEF80E792E0215080409040E1F700C07F
:1001F000000083E00E94DC008FE19EE40197F1F7AC
:1002000000C0000083E00E94DC0087E592E00197D7
:10021000F1F700C0000083E00E94DC0082E00E9451
:10022000DC0088E20E94DC0088E00E94DC0081E0C3
:100230000E94DC008FE39FE10197F1F700C000000E
:1002400086E00E94DC008CE00E94DC00089581E0E2
:100250000E94DC008FE39FE10197F1F700C00000EE
:100260000895CF93DF9300D000D0CDB7DEB71982C9
:1002700090E49A8394E19B8394E59C83E1E0F0E031
:10028000EC0FFD1FE60FF11D9081890F80680E9421
:10029000DC000F900F900F900F90DF91CF91089599
:1002A000CF93DF93D82F682F80E00E943101C0E008
:1002B00004C080E20E94E600CF5FC031D0F36D2F12
:1002C00080E00E943101DF91CF910895CF93DF93B9
:1002D000EC0103C021960E94E60088818111FACFCB
:1002E000DF91CF910895AF92BF92CF92DF92EF92BC
:1002F000FF920F931F93CF93DF93CDB7DEB7FC012F
:100300000DB71EB7DC010D900020E9F711979D0194
:10031000281B390B80918F0190E001966FEF70E000
:100320000E94AD0480938F019DEC899F912D112433
:1003300092959F70990F990F492F440F440F940F76
:10034000981307C081E090918E01911180E0809315
:100350008E0180918E01882329F1CDB6DEB6790118
:10036000FF24C70101962DB73EB7281B390B0FB6E6
:10037000F8943EBF0FBE2DBF8DB79EB701965C01AE
:10038000A70160E270E00E94D504F501EE0DFF1DAB
:100390001082C5010E9466010FB6F894DEBE0FBE42
:1003A000CDBE03C0CF010E9466010FB6F8941EBFF8
:1003B0000FBE0DBFDF91CF911F910F91FF90EF9076
:1003C000DF90CF90BF90AF900895EF92FF920F9380
:1003D0001F93CF93DF938C017B01EA0160E080E003
:1003E0000E943101C8010E94660161E080E00E9424
:1003F0003101219721F4C7010E94730103C0C70195
:100400000E946601DF91CF911F910F91FF90EF90B5
:100410000895CF93DF93EC0160E080E00E9431010A
:1004200080E00E945001CE010E946601DF91CF91D1
:10043000089590E0983078F4282F30E0092E02C01B
:10044000359527950A94E2F720FF03C081E0890FD4
:1004500008959F5FEFCF8FEF089585B1816085B9D3
:100460000895CF93DF93CDB7DEB761970FB6F894B9
:10047000DEBF0FBECDBF1816CCF4282F082E000CFF
:10048000330B3F938F9382E191E09F938F931F9261
:1004900081E18F93CE0101969F938F930E94DC049C
:1004A0000FB6F894DEBF0FBECDBF13C086E291E059
:1004B0009F938F931F9281E18F93CE0101969F931B
:1004C0008F930E94DC040F900F900F900F900F906D
:1004D0000F9040E050E0BE016F5F7F4F8AE391E0F4
:1004E0000E94E50161960FB6F894DEBF0FBECDBF46
:1004F000DF91CF910895181664F4082E000C990B23
:10050000019791E001C0990F8A95EAF790939001C5
:1005100002C010929001809190010E9487030E9476
:10052000A8030895809301010E9431028091010186
:100530000E947B0208958091010118160CF04DC0B5
:1005400086B183FD18C0909100019032A1F080E245
:100550008093000185B1846085B985B1877F85B9B5
:1005600089E491E00E9409026091010140E080E28B
:100570000E947904089581FD18C090910001913284
:10058000A1F081E28093000185B1886085B985B1D1
:100590008B7F85B981E591E00E940902609101019C
:1005A00040E081E20E947904089582FD16C08091A6
:1005B0000001803391F080E38093000185B18B7F4F
:1005C00085B985B1877F85B98AE591E00E940902E6
:1005D00040E060E080E30E9479040895CF93DF93C8
:1005E000CDB7DEB7A2970FB6F894DEBF0FBECDBF72
:1005F0000E9461000E9488000E94F0000E94270172
:1006000040E050E067E671E084E791E00E94E50198
:100610000E942D020E94610380950E941902182FEA
:1006200088230CF44BC080910101181709F446C0CF
:100630000E942701812F0E94920240E0612F80E3F7
:100640000E947904082F812F012E000C990B9F9393
:100650001F938CE791E09F938F931F9281E18F937B
:10066000CE0142969F938F930E94DC040FB6F894BC
:10067000DEBF0FBECDBF002319F08FE591E002C0B1
:1006800082E691E09F938F9386E891E09F938F930A
:100690001F9281E18F938E010F5F1F4F1F930F9366
:1006A0000E94DC0440E050E0B801CE0142960E9476
:1006B000E5010FB6F894DEBF0FBECDBF0E949B02CE
:1006C000A9CF8BB18F7B8BB900C000C000008BB16C
:1006D00080648BB920E080E010C0880F9BB19F7DC3
:1006E0009BB900C000C000004F9981609BB190622F
:1006F0009BB900C000C000002F5F283070F3089540
:100700008AB18C618AB98BB1837E8BB9089590E0F0
:100710001CC047E050E0491B5109282F30E002C0BF
:10072000359527954A95E2F720FF04C02BB1246048
:100730002BB903C02BB12B7F2BB92BB128602BB960
:1007400000002BB1277F2BB99F5F983010F30895DD
:100750008BB180618BB900008BB18F7E8BB908950E
:100760000F931F93CF93DF938C01D62F85B18160B8
:1007700085B9C0E007C0F801EC0FF11D80810E942F
:100780008703CF5FCD17B8F30E94A803DF91CF9105
:100790001F910F910895CF93DF931F92CDB7DEB7CE
:1007A0008AB180668AB98AB18F778AB98BB18F771F
:1007B0008BB9198261E0CE0101960E94B0030F90BF
:1007C000DF91CF9108951092C50087E68093C40011
:1007D00088E18093C10086E08093C20008959091E3
:1007E000C00095FFFCCF8093C600089588EA91E68B
:1007F00002C0019739F02091C0002223D4F78091E4
:10080000C60008958FEF0895AC0130E08FEF14C05B
:10081000FA01E30FF11D9081892720E00AC08823A7
:1008200034F490E0880F991F97E0892701C0880F62
:100830002F5F2830A0F33F5F361750F308951F93C2
:10084000CF93DF9300D000D000D0CDB7DEB792E0D9
:1008500099838A836B834C8363E0CE0102960E9466
:1008600004048D8383E08E8310E00AC0E1E0F0E0B1
:10087000EC0FFD1FE10FF11D80810E94EF031F5F50
:100880001630A0F326960FB6F894DEBF0FBECDBF8C
:10089000DF91CF911F9108950F931F93CF938C01F8
:1008A0000E94F6038230E1F4F8018083C1E007C0C2
:1008B0000E94F603F801EC0FF11D8083CF5FC63074
:1008C000B8F3F8018581833069F463E0C8010196CB
:1008D0000E940404F8019481891731F080E005C07A
:1008E00080E003C080E001C081E0CF911F910F91B3
:1008F0000895EF92FF920F931F93CF93DF9300D051
:1009000000D000D0CDB7DEB7082FE62EF42E10E0D1
:1009100012C04F2D6E2D802F0E941F04CE01019614
:100920000E944C04882331F08A81803419F48B8131
:10093000081729F01F5F133060F380E001C081E0E9
:1009400026960FB6F894DEBF0FBECDBFDF91CF91D4
:100950001F910F91FF90EF90089597FB072E16F4CB
:10096000009407D077FD09D00E94C10407FC05D090
:100970003EF4909581959F4F0895709561957F4FB6
:100980000895AA1BBB1B51E107C0AA1FBB1FA617D6
:10099000B70710F0A61BB70B881F991F5A95A9F728
:1009A00080959095BC01CD010895DC0101C06D9347
:1009B00041505040E0F70895AEE0B0E0E2EEF4E0E0
:1009C0000C94AB070D891E898F89988D26E02C83A6
:1009D0001A83098397FF02C080E090E801979E8305
:1009E0008D83AE01455E5F4F698D7A8DCE01019694
:1009F0000E940C054D815E8157FD0AC02F8138850C
:100A0000421753070CF49A01F801E20FF31F10820A
:100A10002E96E4E00C94C707ABE0B0E0E2E1F5E02D
:100A20000C949D076C017B018A01FC0117821682E0
:100A3000838181FFCCC1CE0101963C01F6019381F7
:100A4000F70193FD859193FF81917F01882309F43C
:100A5000BAC1853239F493FD859193FF81917F016D
:100A6000853229F4B60190E00E940307E7CF912C6C
:100A7000212C312CFFE1F315D8F08B3279F038F4CA
:100A8000803279F08332A1F4232D20611DC08D3294
:100A900061F0803369F4232D216016C0832D8260BC
:100AA000382EE32DE4603E2E2AC0F32DF8601DC0E1
:100AB00037FC2DC020ED280F2A3040F08E32B9F4DB
:100AC00036FC81C1232D2064322E19C036FE06C0AB
:100AD0008AE0989E200D1124922E11C0EAE02E9EED
:100AE000200D1124222EF32DF0623F2E08C08C36EB
:100AF00021F4832D8068382E02C0883641F4F70136
:100B000093FD859193FF81917F018111B3CF982F40
:100B10009F7D9554933028F40C5F1F4F9FE399837A
:100B20000DC0833631F0833771F0833509F059C039
:100B300021C0F801808189830E5F1F4F8824839430
:100B4000912C530113C02801F2E04F0E511CF80103
:100B5000A080B18036FE03C0692D70E002C06FEF47
:100B60007FEFC5010E94F8064C018201F32DFF774B
:100B70003F2E16C0280122E0420E511CF801A08031
:100B8000B18036FE03C0692D70E002C06FEF7FEFC9
:100B9000C5010E94ED064C01F32DF0683F2E820145
:100BA00033FC1BC0822D90E088169906B0F4B60184
:100BB00080E290E00E9403072A94F4CFF50137FC0D
:100BC000859137FE81915F01B60190E00E94030795
:100BD00021102A9421E0821A91088114910471F75E
:100BE000E8C0843611F0893641F5F80137FE07C0B8
:100BF00060817181828193810C5F1F4F08C0608189
:100C00007181072E000C880B990B0E5F1F4FF32D7F
:100C1000FF763F2E97FF09C090958095709561955E
:100C20007F4F8F4F9F4FF0683F2E2AE030E0A301A7
:100C30000E943F07882E861845C0853731F4232D42
:100C40002F7EB22E2AE030E025C0932D997FB92E59
:100C50008F36C1F018F4883579F0B5C0803719F0B7
:100C6000883721F0B0C0E92FE061BE2EB4FE0DC080
:100C7000FB2DF460BF2E09C034FE0AC0292F266068
:100C8000B22E06C028E030E005C020E130E002C00E
:100C900020E132E0F801B7FE07C0608171818281F6
:100CA00093810C5F1F4F06C06081718180E090E0EE
:100CB0000E5F1F4FA3010E943F07882E8618FB2D51
:100CC000FF773F2E36FE0DC0232D2E7FA22E8914D6
:100CD00058F434FE0BC032FC09C0832D8E7EA82E42
:100CE00005C0B82CA32C03C0B82C01C0B92CA4FE9D
:100CF0000FC0FE01E80DF11D8081803321F49A2D93
:100D0000997EA92E09C0A2FE06C0B394B39404C074
:100D10008A2D867809F0B394A3FC11C0A0FE06C00A
:100D2000B21488F4280C922C9B180EC0B21460F4F4
:100D3000B60180E290E00E940307B394F7CFB214AB
:100D400018F42B1802C0982C212CA4FE10C0B60158
:100D500080E390E00E940307A2FE17C0A1FC03C03D
:100D600088E790E002C088E590E0B6010CC08A2DCB
:100D7000867859F0A1FE02C08BE201C080E2A7FC98
:100D80008DE2B60190E00E940307891438F4B601A1
:100D900080E390E00E9403079A94F7CF8A94F301CE
:100DA000E80DF11D8081B60190E00E9403078110DB
:100DB000F5CF222009F442CEB60180E290E00E94F5
:100DC00003072A94F6CFF6018681978102C08FEF40
:100DD0009FEF2B96E2E10C94B907FC01059061505E
:100DE00070400110D8F7809590958E0F9F1F089541
:100DF000FC016150704001900110D8F780959095EA
:100E00008E0F9F1F08950F931F93CF93DF93FB01C6
:100E1000238121FD03C08FEF9FEF2CC022FF16C05E
:100E200046815781248135814217530744F4A081BC
:100E3000B1819D012F5F3F4F318320838C932681A9
:100E400037812F5F3F4F3783268314C08B01EC011E
:100E5000FB010084F185E02D0995892BE1F6D8018D
:100E600016968D919C911797019617969C938E9349
:100E70001697CE01DF91CF911F910F910895FA013E
:100E8000AA27283051F1203181F1E8946F936E7FC9
:100E90006E5F7F4F8F4F9F4FAF4FB1E03ED0B4E0BA
:100EA0003CD0670F781F891F9A1FA11D680F791FFB
:100EB0008A1F911DA11D6A0F711D811D911DA11D0C
:100EC00020D009F468943F912AE0269F112430191C
:100ED000305D3193DEF6CF010895462F4770405DB7
:100EE0004193B3E00FD0C9F7F6CF462F4F70405D66
:100EF0004A3318F0495D31FD4052419302D0A9F7C1
:100F0000EACFB4E0A6959795879577956795BA95BA
:100F1000C9F700976105710508959B01AC010A2E80
:100F200006945795479537952795BA95C9F7620F57
:100F3000731F841F951FA01D08952F923F924F92FB
:100F40005F926F927F928F929F92AF92BF92CF9259
:100F5000DF92EF92FF920F931F93CF93DF93CDB762
:100F6000DEB7CA1BDB0B0FB6F894DEBF0FBECDBFDA
:100F700009942A88398848885F846E847D848C84AB
:100F80009B84AA84B984C884DF80EE80FD800C81B4
:100F90001B81AA81B981CE0FD11D0FB6F894DEBF97
:0C0FA0000FBECDBFED010895F894FFCF07
:100FAC0030FF57616974696E6720666F7220436DFC
:100FBC0064005441424C453A20252D3264202020B7
:100FCC002020202020005441424C453A202D202046
:100FDC002020202020202020200053656C65637485
:100FEC0020636F6D6D616E6400464F5257415244E1
:100FFC00004241434B574152440053544F50004F11
:10100C004B004641494C0053656C65637420746118
:10101C00626C650057656C636F6D65005461626C42
:0E102C00653A2025640041434B3A20257300AD
:00000001FF
