S01300005472616E736D69747465722E7372656374
S11300000C9434000C9451000C9451000C94510045
S11300100C9451000C9451000C9451000C94510018
S11300200C9451000C9451000C9451000C94510008
S11300300C9451000C9451000C9451000C945100F8
S11300400C9451000C9451000C9451000C945100E8
S11300500C9451000C9451000C9451000C945100D8
S11300600C9451000C94510011241FBECFEFD8E022
S1130070DEBFCDBF11E0A0E0B1E0E4EEF2E002C0EB
S113008005900D92A230B107D9F721E0A2E0B1E0CA
S113009001C01D92A430B207E1F70E9440010C9404
S11300A070010C94000084EA8093BC008091BC0031
S11300B08823E4F7089584E98093BC008091BC0010
S11300C084FDFCCF08958093BB0084E88093BC003A
S11300D08091BC008823E4F708950F931F93CF9376
S11300E0DF93D82FD07FD62B0D2F086020E1829F7D
S11300F0C0011124C62FC82B1C2F18600E94530066
S11301008EE40E946300802F0E9463008D2F8C6018
S11301100E946300802F0E946300812F0E9463006D
S11301208C2F8C600E946300812F0E9463000E94C8
S11301305B00DF91CF911F910F91089560E00E94C1
S11301406D008FE39FE10197F1F700C0000008956F
S113015061E00E946D008FE39FE10197F1F700C019
S113016000000895CF93DF9300D000D0CDB7DEB761
S1130170198290E49A8394E19B8394E59C83E1E063
S1130180F0E0EC0FFD1FE60FF11D9081890F8068F0
S11301900E949E000F900F900F900F90DF91CF91CF
S11301A00895CF93DF93EC0103C021960E94A80029
S11301B088818111FACFDF91CF910895CF93DF9396
S11301C0CDB7DEB761970FB6F894DEBF0FBECDBFD3
S11301D090E01AC0292F30E067E070E0621B730BD7
S11301E0482F50E002C0559547956A95E2F740FFC5
S11301F002C041E301C040E3E1E0F0E0EC0FFD1F89
S1130200E20FF31F40839F5F983020F3198661E06B
S113021080E00E94B200CE0101960E94D100619656
S11302200FB6F894DEBF0FBECDBFDF91CF91089516
S11302300895809102010E94DE00089580910201D8
S11302400E94DE000895CF930E9445018095C091DD
S113025000018C1799F0C827C823C0930301809329
S11302600001CC2359F00E941801882321F08C2F1F
S11302700E94190103C08C2F0E941E01CF91089582
S11302800E9464010E942301FDCF8BB18F7B8BB947
S113029000C000C000008BB180648BB920E080E016
S11302A010C0880F9BB19F7D9BB900C000C00000A7
S11302B04F9981609BB190629BB900C000C000005F
S11302C02F5F283070F308951092C50087E680935D
S11302D0C40088E18093C10086E08093C200089541
S10702E0F894FFCFBC
S10502E4FF0015
S9030000FC
