S01A000043616665547261696E41746D6567613332382E73726563B1
S11300000C9434000C9451000C9451000C94510045
S11300100C9451000C9451000C9451000C94510018
S11300200C9451000C9451000C9451000C94510008
S11300300C9451000C9451000C94B1020C94510096
S11300400C9451000C9451000C9451000C945100E8
S11300500C9451000C9451000C9451000C945100D8
S11300600C9451000C94510011241FBECFEFD8E022
S1130070DEBFCDBF11E0A0E0B1E0E0EAFCE002C0E9
S113008005900D92AE3BB107D9F721E0AEEBB1E09C
S113009001C01D92A53EB207E1F70E94BE010C9477
S11300A04E060C9400001092B90088E48093B800C6
S11300B084E08093BC00089584EA8093BC0080911E
S11300C0BC008823E4F7089584E98093BC00809100
S11300D0BC0084FDFCCF08958093BB0084E880932A
S11300E0BC008091BC008823E4F708950F931F930C
S11300F0CF93DF93D82FD07FD62B0D2F086020E12C
S1130100829FC0011124C62FC82B1C2F18600E9487
S11301105C008EE40E946C00802F0E946C008D2F86
S11301208C600E946C00802F0E946C00812F0E94C2
S11301306C008C2F8C600E946C00812F0E946C00DC
S11301400E946400DF91CF911F910F91089560E0A8
S11301500E9476008FE39FE10197F1F700C0000051
S1130160089561E00E9476008FE39FE10197F1F723
S113017000C0000008952FEF80E792E021508040F6
S11301809040E1F700C0000083E00E94A7008FE1E7
S11301909EE40197F1F700C0000083E00E94A700ED
S11301A087E592E00197F1F700C0000083E00E9428
S11301B0A70082E00E94A70088E20E94A70088E0CE
S11301C00E94A70081E00E94A7008FE39FE10197AE
S11301D0F1F700C0000086E00E94A7008CE00E94B6
S11301E0A700089581E00E94A7008FE39FE1019793
S11301F0F1F700C000000895CF93DF9300D000D042
S1130200CDB7DEB7198290E49A8394E19B8394E599
S11302109C83E1E0F0E0EC0FFD1FE60FF11D9081FF
S1130220890F80680E94A7000F900F900F900F9085
S1130230DF91CF910895CF93DF93EC0103C0219612
S11302400E94B10088818111FACFDF91CF91089586
S1130250AF92BF92CF92DF92EF92FF920F931F93D0
S1130260CF93DF93CDB7DEB7FC010DB71EB7DC012A
S11302700D900020E9F711979D01281B390B8091FF
S1130280BF0190E001966FEF70E00E942703809316
S1130290BF019DEC899F912D112492959F70990F18
S11302A0990F492F440F440F940F981307C081E00E
S11302B09091BE01911180E08093BE018091BE01B6
S11302C0882329F1CDB6DEB67901FF24C701019652
S11302D02DB73EB7281B390B0FB6F8943EBF0FBE9F
S11302E02DBF8DB79EB701965C01A70160E270E057
S11302F00E944F03F501EE0DFF1D1082C5010E94FF
S11303001B010FB6F894DEBE0FBECDBE03C0CF01F5
S11303100E941B010FB6F8941EBF0FBE0DBFDF91E4
S1130320CF911F910F91FF90EF90DF90CF90BF90EE
S1130330AF900895EF92FF920F931F93CF93DF93A3
S11303408C017B01EA0160E080E00E94FC00C801AE
S11303500E941B0161E080E00E94FC00219721F4CF
S1130360C7010E94280103C0C7010E941B01DF913D
S1130370CF911F910F91FF90EF900895CF93DF934A
S113038000D000D000D0CDB7DEB70E9453000E9449
S1130390BB000E94F2000E94DE020E94240284E05C
S11303A00E9431020E94EA028230F9F4898311E04A
S11303B0163068F4E12EF12C0E94EA02E1E0F0E04C
S11303C0EC0FFD1FEE0DFF1D80831F5FF1CF63E077
S11303D0CE0102960E94F1029D81891308C0CE01CC
S11303E001960E940C039A8103C09FEF01C09FEF06
S11303F08EE0E8E5F1E0A0EDB1E001900D928A9580
S1130400E1F71F929F9386E691E09F938F931F924B
S113041080E18F9380EC91E09F938F930E94560329
S113042040E050E060EC71E080ED91E00E949A01C0
S113043083EC99E00197F1F700C000000FB6F8943F
S1130440DEBF0FBECDBFAECF84B18D6184B98AB19A
S113045080688AB985B1827E85B98BB18F778BB973
S113046008951092E00181E08093E2011092E4018A
S11304701092E30108959FEF980F903160F495B1C5
S1130480927E95B995B1E82FF0E0E355FE4F808157
S11304908D71892B85B90895CF93DF93CDB7DEB7DE
S11304A02B970FB6F894DEBF0FBECDBF8091E2014B
S11304B08823D1F1E091E0018BE0E89FF001112461
S11304C0E050FF4F8BE0DE01119601900D928A956A
S11304D0E1F78091E3019091E4018436910520F1E4
S11304E01092E4011092E3019B858091E001891749
S11304F078F48091E001E3E0F0E0EC0FFD1FE80FF9
S1130500F11D80810E943B028BB180688BB907C0CA
S11305108BB18F778BB91092E2011092E101809137
S1130520E0018F5F8093E0012B960FB6F894DEBF55
S11305300FBECDBFDF91CF9108958BB18F778BB96B
S11305400895CF93C82F0E949D02CC2311F08FE011
S113055001C08EE00E943B028BB180688BB9CF91C1
S113056008951F920F920FB60F9211242F933F9369
S11305704F935F936F937F938F939F93AF93BF93A7
S1130580EF93FF938091E3019091E401019690939E
S1130590E4018093E3010E944C02FF91EF91BF912B
S11305A0AF919F918F917F916F915F914F913F9107
S11305B02F910F900FBE0F901F9018951092C500A9
S11305C087E68093C40088E18093C10086E080932D
S11305D0C20008958091C0008823E4F78091C6008A
S11305E00895AC0130E08FEF14C0FA01E30FF11D60
S11305F09081892720E00AC0882334F490E0880F92
S1130600991F97E0892701C0880F2F5F2830A0F336
S11306103F5F361750F30895CF93DF930097A1F00F
S1130620FC01D181C48163E001960E94F102C813E8
S11306300BC0D13229F0D03339F40E949D0204C09A
S113064080E090E00E94A102DF91CF91089597FB92
S1130650072E16F4009407D077FD09D00E943B03BF
S113066007FC05D03EF4909581959F4F08957095B1
S113067061957F4F0895AA1BBB1B51E107C0AA1FB8
S1130680BB1FA617B70710F0A61BB70B881F991F2F
S11306905A95A9F780959095BC01CD010895DC0188
S11306A001C06D9341505040E0F70895AEE0B0E0D2
S11306B0ECE5F3E00C9425060D891E898F89988D4D
S11306C026E02C831A83098397FF02C080E090E818
S11306D001979E838D83AE01455E5F4F698D7A8D50
S11306E0CE0101960E9486034D815E8157FD0AC0AA
S11306F02F813885421753070CF49A01F801E20F51
S1130700F31F10822E96E4E00C944106ABE0B0E0B7
S1130710ECE8F3E00C9417066C017B018A01FC0100
S113072017821682838181FFCCC1CE0101963C01E0
S1130730F6019381F70193FD859193FF81917F01E8
S1130740882309F4BAC1853239F493FD859193FF66
S113075081917F01853229F4B60190E00E947D05E4
S1130760E7CF912C212C312CFFE1F315D8F08B32FB
S113077079F038F4803279F08332A1F4232D2061AA
S11307801DC08D3261F0803369F4232D216016C0C1
S1130790832D8260382EE32DE4603E2E2AC0F32D93
S11307A0F8601DC037FC2DC020ED280F2A3040F022
S11307B08E32B9F436FC81C1232D2064322E19C047
S11307C036FE06C08AE0989E200D1124922E11C098
S11307D0EAE02E9E200D1124222EF32DF0623F2EEE
S11307E008C08C3621F4832D8068382E02C08836E8
S11307F041F4F70193FD859193FF81917F0181116C
S1130800B3CF982F9F7D9554933028F40C5F1F4FDE
S11308109FE399830DC0833631F0833771F08335BC
S113082009F059C021C0F801808189830E5F1F4FF0
S113083088248394912C530113C02801F2E04F0EB5
S1130840511CF801A080B18036FE03C0692D70E010
S113085002C06FEF7FEFC5010E9472054C01820157
S1130860F32DFF773F2E16C0280122E0420E511CC3
S1130870F801A080B18036FE03C0692D70E002C08B
S11308806FEF7FEFC5010E9467054C01F32DF068FF
S11308903F2E820133FC1BC0822D90E088169906FE
S11308A0B0F4B60180E290E00E947D052A94F4CF72
S11308B0F50137FC859137FE81915F01B60190E027
S11308C00E947D0521102A9421E0821A9108811446
S11308D0910471F7E8C0843611F0893641F5F801C6
S11308E037FE07C060817181828193810C5F1F4F45
S11308F008C060817181072E000C880B990B0E5F74
S11309001F4FF32DFF763F2E97FF09C090958095DA
S1130910709561957F4F8F4F9F4FF0683F2E2AE06F
S113092030E0A3010E94B905882E861845C085379A
S113093031F4232D2F7EB22E2AE030E025C0932DF2
S1130940997FB92E8F36C1F018F4883579F0B5C087
S1130950803719F0883721F0B0C0E92FE061BE2E4E
S1130960B4FE0DC0FB2DF460BF2E09C034FE0AC0D6
S1130970292F2660B22E06C028E030E005C020E111
S113098030E002C020E132E0F801B7FE07C0608128
S11309907181828193810C5F1F4F06C060817181D8
S11309A080E090E00E5F1F4FA3010E94B905882EDE
S11309B08618FB2DFF773F2E36FE0DC0232D2E7F8C
S11309C0A22E891458F434FE0BC032FC09C0832DC6
S11309D08E7EA82E05C0B82CA32C03C0B82C01C051
S11309E0B92CA4FE0FC0FE01E80DF11D80818033F7
S11309F021F49A2D997EA92E09C0A2FE06C0B394B3
S1130A00B39404C08A2D867809F0B394A3FC11C072
S1130A10A0FE06C0B21488F4280C922C9B180EC0B9
S1130A20B21460F4B60180E290E00E947D05B394B4
S1130A30F7CFB21418F42B1802C0982C212CA4FE62
S1130A4010C0B60180E390E00E947D05A2FE17C0AD
S1130A50A1FC03C088E790E002C088E590E0B601FD
S1130A600CC08A2D867859F0A1FE02C08BE201C029
S1130A7080E2A7FC8DE2B60190E00E947D05891416
S1130A8038F4B60180E390E00E947D059A94F7CF94
S1130A908A94F301E80DF11D8081B60190E00E9473
S1130AA07D058110F5CF222009F442CEB60180E203
S1130AB090E00E947D052A94F6CFF6018681978105
S1130AC002C08FEF9FEF2B96E2E10C943306FC01FA
S1130AD00590615070400110D8F7809590958E0F65
S1130AE09F1F0895FC016150704001900110D8F7D8
S1130AF0809590958E0F9F1F08950F931F93CF930A
S1130B00DF93FB01238121FD03C08FEF9FEF2CC0F6
S1130B1022FF16C04681578124813581421753072D
S1130B2044F4A081B1819D012F5F3F4F3183208325
S1130B308C93268137812F5F3F4F3783268314C0E0
S1130B408B01EC01FB010084F185E02D0995892BD3
S1130B50E1F6D80116968D919C91179701961796F8
S1130B609C938E931697CE01DF91CF911F910F9195
S1130B700895FA01AA27283051F1203181F1E8942F
S1130B806F936E7F6E5F7F4F8F4F9F4FAF4FB1E07C
S1130B903ED0B4E03CD0670F781F891F9A1FA11D77
S1130BA0680F791F8A1F911DA11D6A0F711D811D78
S1130BB0911DA11D20D009F468943F912AE0269F3D
S1130BC011243019305D3193DEF6CF010895462F9C
S1130BD04770405D4193B3E00FD0C9F7F6CF462F7D
S1130BE04F70405D4A3318F0495D31FD40524193E6
S1130BF002D0A9F7EACFB4E0A695979587957795A3
S1130C006795BA95C9F700976105710508959B0129
S1130C10AC010A2E06945795479537952795BA95B2
S1130C20C9F7620F731F841F951FA01D08952F928B
S1130C303F924F925F926F927F928F929F92AF9268
S1130C40BF92CF92DF92EF92FF920F931F93CF93B5
S1130C50DF93CDB7DEB7CA1BDB0B0FB6F894DEBF4C
S1130C600FBECDBF09942A88398848885F846E8472
S1130C707D848C849B84AA84B984C884DF80EE80BC
S1130C80FD800C811B81AA81B981CE0FD11D0FB6C5
S1130C90F894DEBF0FBECDBFED010895F894FFCFE9
S1130CA0700102000000000000000178010104004E
S1130CB000000000000280010103060000000000A3
S1130CC003880101030508000000000490010103EA
S1130CD005070A00000005980101030507090C0037
S1130CE000069D0101030507090B0E0007A601017B
S1130CF0030507090B0D0007436F6E74726F6C20B8
S1130D0050616E656C00436D643A202530325800A2
S1130D105461626C652031005461626C652032005C
S1130D205461626C652033005461626C6520340048
S1130D305461626C6520350053746F7000426163C6
S1130D406B7761726400466F7277617264000010A1
S1110D50081804140C1C0111091905150D1DB9
S9030000FC
