S01A000043616665547261696E41746D6567613332382E73726563B1
S11300000C9434000C9451000C9451000C94510045
S11300100C9451000C9451000C9451000C94510018
S11300200C9451000C9451000C9451000C94510008
S11300300C9451000C9451000C942B030C9451001B
S11300400C9451000C9451000C9451000C945100E8
S11300500C9451000C9451000C9451000C945100D8
S11300600C9451000C94510011241FBECFEFD8E022
S1130070DEBFCDBF11E0A0E0B1E0E4E4FEE002C0E9
S113008005900D92AA32B107D9F721E0AAE2B1E0B6
S113009001C01D92A133B207E1F70E9473020C94D0
S11300A020070C9400001092B90088E48093B800F3
S11300B084E08093BC00089584EA8093BC0080911E
S11300C0BC008823E4F7089584E98093BC00809100
S11300D0BC0084FDFCCF08958093BB0084E880932A
S11300E0BC008091BC008823E4F708950F931F930C
S11300F0CF93DF93D82FD07FD62B0D2F086020E12C
S1130100829FC0011124C62FC82B1C2F18600E9487
S11301105C008EE40E946C00802F0E946C008D2F86
S11301208C600E946C00802F0E946C00812F0E94C2
S11301306C008C2F8C600E946C00812F0E946C00DC
S11301400E946400DF91CF911F910F91089560E0A8
S11301500E9476008FE39FE10197F1F700C0000051
S1130160089561E00E9476008FE39FE10197F1F723
S113017000C0000008952FEF80E792E021508040F6
S11301809040E1F700C0000083E00E94A7008FE1E7
S11301909EE40197F1F700C0000083E00E94A700ED
S11301A087E592E00197F1F700C0000083E00E9428
S11301B0A70082E00E94A70088E20E94A70088E0CE
S11301C00E94A70081E00E94A7008FE39FE10197AE
S11301D0F1F700C0000086E00E94A7008CE00E94B6
S11301E0A700089581E00E94A7008FE39FE1019793
S11301F0F1F700C000000895CF93DF9300D000D042
S1130200CDB7DEB7198290E49A8394E19B8394E599
S11302109C83E1E0F0E0EC0FFD1FE60FF11D9081FF
S1130220890F80680E94A7000F900F900F900F9085
S1130230DF91CF910895CF93DF93EC0103C0219612
S11302400E94B10088818111FACFDF91CF91089586
S1130250AF92BF92CF92DF92EF92FF920F931F93D0
S1130260CF93DF93CDB7DEB7FC010DB71EB7DC012A
S11302700D900020E9F711979D01281B390B8091FF
S11302802B0190E001966FEF70E00E94F9038093D8
S11302902B019DEC899F912D112492959F70990FAC
S11302A0990F492F440F440F940F981307C081E00E
S11302B090912A01911180E080932A0180912A0172
S11302C0882329F1CDB6DEB67901FF24C701019652
S11302D02DB73EB7281B390B0FB6F8943EBF0FBE9F
S11302E02DBF8DB79EB701965C01A70160E270E057
S11302F00E942104F501EE0DFF1D1082C5010E942C
S11303001B010FB6F894DEBE0FBECDBE03C0CF01F5
S11303100E941B010FB6F8941EBF0FBE0DBFDF91E4
S1130320CF911F910F91FF90EF90DF90CF90BF90EE
S1130330AF900895EF92FF920F931F93CF93DF93A3
S11303408C017B01EA0160E080E00E94FC00C801AE
S11303500E941B0161E080E00E94FC00219721F4CF
S1130360C7010E94280103C0C7010E941B01DF913D
S1130370CF911F910F91FF90EF9008950F931F93CA
S1130380CF93DF93CDB7DEB760970FB6F894DEBF97
S11303900FBECDBF1F928F9380E091E09F938F9308
S11303A01F9280E18F938E010F5F1F4F1F930F9356
S11303B00E9428040E94F20040E050E0B8018AE064
S11303C091E00E949A010FB6F894DEBF0FBECDBF34
S11303D060960FB6F894DEBF0FBECDBFDF91CF910C
S11303E01F910F910895CF93DF9300D01F92CDB743
S11303F0DEB70E9453000E94BB000E94F2000E94DC
S113040042030E941A030E94E3020E949B02198283
S11304101A821B8263E0CE0101960E94CB0278947B
S113042040E050E063E171E08AE191E00E949A01CA
S11304300F900F900F90DF91CF910895282F862F62
S113044030E021503109722F770F91E040E050E005
S1130450971760F421E030E0092E02C0220F331F09
S11304600A94E2F7422B532B9E5FF2CF21E030E057
S113047002C0220F331F7A95E2F7422B532B40938D
S11304802D0150932C0191E090932E010E94ED03D5
S11304900895CF93992329F1C62F10922D0110921C
S11304A02C01613279F0603319F0603291F406C0A6
S11304B010922E01862F0E94ED030EC0872F0E94FA
S11304C01E020AC082E080932E01862F0E94ED0353
S11304D003C0862F0E94F3030E9400038C2F0E9406
S11304E0BE01CF9108950E94F3010E947C020E94F4
S11304F0AB030E944902F9CF8BB18F7B8BB900C04B
S113050000C000008BB180648BB920E080E010C093
S1130510880F9BB19F7D9BB900C000C000004F991C
S113052081609BB190629BB900C000C000002F5F46
S1130530283070F308958AB18C618AB98BB1837EB7
S11305408BB9089590E01CC047E050E0491B510965
S1130550282F30E002C0359527954A95E2F720FF11
S113056004C02BB124602BB903C02BB12B7F2BB952
S11305702BB128602BB900002BB1277F2BB99F5FCB
S1130580983010F308958BB180618BB900008BB162
S11305908F7E8BB908950F931F93CF93DF938C01B4
S11305A0D62FC0E007C0F801EC0FF11D80810E9436
S11305B0A202CF5FCD17B8F30E94C302DF91CF919F
S11305C01F910F910895CF93DF9300D01F92CDB761
S11305D0DEB78AB180668AB98AB18F778AB98BB15E
S11305E08F778BB919821A821B8263E0CE01019640
S11305F00E94CB020F900F900F90DF91CF9108953E
S1130600CF93DF9300D01F92CDB7DEB780912E0138
S1130610898380912D018A8380912C018B8363E0EF
S1130620CE0101960E94CB020F900F900F90DF91A4
S1130630CF91089584B5826084BD85B5836085BDFE
S113064089EF87BDEEE6F0E080818260808380815F
S11306508260808308951F920F920FB60F92112427
S11306608F939F9380912F019091300101969093E5
S1130670300180932F019F918F910F900FBE0F90A7
S11306801F9018951092C50087E68093C40088E1F6
S11306908093C10086E08093C20008959091C000C9
S11306A095FFFCCF8093C600089588EA91E602C0C6
S11306B0019739F02091C0002223D4F78091C6001D
S11306C008958FEF0895AC0130E08FEF14C0FA0164
S11306D0E30FF11D9081892720E00AC0882334F4B8
S11306E090E0880F991F97E0892701C0880F2F5F3A
S11306F02830A0F33F5F361750F308951F93CF932C
S1130700DF9300D000D000D0CDB7DEB792E099835C
S11307108A836B834C8363E0CE0102960E94630359
S11307208D8383E08E8310E00AC0E1E0F0E0EC0FFB
S1130730FD1FE10FF11D80810E944E031F5F1630E3
S1130740A0F326960FB6F894DEBF0FBECDBFDF919F
S1130750CF911F910895EF92FF921F93CF93DF9350
S113076000D000D000D0CDB7DEB70E945503823050
S113077029F060E070E080E090E023C082E08983AB
S113078011E00CC0E12EF12C0E945503E1E0F0E0F1
S1130790EC0FFD1FEE0DFF1D80831F5F163090F3DD
S11307A063E0CE0102960E9463039D81891729F0BC
S11307B060E070E080E090E004C06A817B818C811D
S11307C091E026960FB6F894DEBF0FBECDBFDF9141
S11307D0CF911F91FF90EF90089540E0682F80E43F
S11307E00E947E03089540E0682F81E40E947E0306
S11307F0089597FB072E16F4009407D077FD09D0CF
S11308000E940D0407FC05D03EF4909581959F4FFE
S11308100895709561957F4F0895AA1BBB1B51E104
S113082007C0AA1FBB1FA617B70710F0A61BB70B5C
S1130830881F991F5A95A9F780959095BC01CD0101
S11308400895DC0101C06D9341505040E0F70895D4
S1130850AEE0B0E0EEE2F4E00C94F7060D891E89F8
S11308608F89988D26E02C831A83098397FF02C011
S113087080E090E801979E838D83AE01455E5F4FD3
S1130880698D7A8DCE0101960E9458044D815E8156
S113089057FD0AC02F813885421753070CF49A017B
S11308A0F801E20FF31F10822E96E4E00C94130774
S11308B0ABE0B0E0EEE5F4E00C94E9066C017B01FA
S11308C08A01FC0117821682838181FFCCC1CE018B
S11308D001963C01F6019381F70193FD859193FF05
S11308E081917F01882309F4BAC1853239F493FDDB
S11308F0859193FF81917F01853229F4B60190E0BF
S11309000E944F06E7CF912C212C312CFFE1F315E7
S1130910D8F08B3279F038F4803279F08332A1F454
S1130920232D20611DC08D3261F0803369F4232DA5
S1130930216016C0832D8260382EE32DE4603E2EA4
S11309402AC0F32DF8601DC037FC2DC020ED280F00
S11309502A3040F08E32B9F436FC81C1232D206454
S1130960322E19C036FE06C08AE0989E200D11244E
S1130970922E11C0EAE02E9E200D1124222EF32D7A
S1130980F0623F2E08C08C3621F4832D8068382E07
S113099002C0883641F4F70193FD859193FF81915C
S11309A07F018111B3CF982F9F7D9554933028F404
S11309B00C5F1F4F9FE399830DC0833631F083375B
S11309C071F0833509F059C021C0F8018081898311
S11309D00E5F1F4F88248394912C530113C0280168
S11309E0F2E04F0E511CF801A080B18036FE03C026
S11309F0692D70E002C06FEF7FEFC5010E944406CD
S1130A004C018201F32DFF773F2E16C0280122E00E
S1130A10420E511CF801A080B18036FE03C0692D3E
S1130A2070E002C06FEF7FEFC5010E9439064C01F0
S1130A30F32DF0683F2E820133FC1BC0822D90E021
S1130A4088169906B0F4B60180E290E00E944F0641
S1130A502A94F4CFF50137FC859137FE81915F012B
S1130A60B60190E00E944F0621102A9421E0821AD8
S1130A7091088114910471F7E8C0843611F0893625
S1130A8041F5F80137FE07C060817181828193814D
S1130A900C5F1F4F08C060817181072E000C880B0A
S1130AA0990B0E5F1F4FF32DFF763F2E97FF09C062
S1130AB090958095709561957F4F8F4F9F4FF0680B
S1130AC03F2E2AE030E0A3010E948B06882E861870
S1130AD045C0853731F4232D2F7EB22E2AE030E035
S1130AE025C0932D997FB92E8F36C1F018F488351F
S1130AF079F0B5C0803719F0883721F0B0C0E92FFC
S1130B00E061BE2EB4FE0DC0FB2DF460BF2E09C003
S1130B1034FE0AC0292F2660B22E06C028E030E039
S1130B2005C020E130E002C020E132E0F801B7FE68
S1130B3007C060817181828193810C5F1F4F06C061
S1130B406081718180E090E00E5F1F4FA3010E94DD
S1130B508B06882E8618FB2DFF773F2E36FE0DC0A0
S1130B60232D2E7FA22E891458F434FE0BC032FCA0
S1130B7009C0832D8E7EA82E05C0B82CA32C03C0DB
S1130B80B82C01C0B92CA4FE0FC0FE01E80DF11D64
S1130B908081803321F49A2D997EA92E09C0A2FE6A
S1130BA006C0B394B39404C08A2D867809F0B39434
S1130BB0A3FC11C0A0FE06C0B21488F4280C922C29
S1130BC09B180EC0B21460F4B60180E290E00E945B
S1130BD04F06B394F7CFB21418F42B1802C0982C14
S1130BE0212CA4FE10C0B60180E390E00E944F06C1
S1130BF0A2FE17C0A1FC03C088E790E002C088E50C
S1130C0090E0B6010CC08A2D867859F0A1FE02C08E
S1130C108BE201C080E2A7FC8DE2B60190E00E9465
S1130C204F06891438F4B60180E390E00E944F0621
S1130C309A94F7CF8A94F301E80DF11D8081B601EF
S1130C4090E00E944F068110F5CF222009F442CE95
S1130C50B60180E290E00E944F062A94F6CFF60196
S1130C608681978102C08FEF9FEF2B96E2E10C946F
S1130C700507FC010590615070400110D8F780957C
S1130C8090958E0F9F1F0895FC0161507040019054
S1130C900110D8F7809590958E0F9F1F08950F939C
S1130CA01F93CF93DF93FB01238121FD03C08FEFBB
S1130CB09FEF2CC022FF16C04681578124813581C5
S1130CC04217530744F4A081B1819D012F5F3F4F28
S1130CD0318320838C93268137812F5F3F4F378365
S1130CE0268314C08B01EC01FB010084F185E02D07
S1130CF00995892BE1F6D80116968D919C91179749
S1130D00019617969C938E931697CE01DF91CF91FF
S1130D101F910F910895FA01AA27283051F120312B
S1130D2081F1E8946F936E7F6E5F7F4F8F4F9F4F7B
S1130D30AF4FB1E03ED0B4E03CD0670F781F891FBD
S1130D409A1FA11D680F791F8A1F911DA11D6A0F8B
S1130D50711D811D911DA11D20D009F468943F913E
S1130D602AE0269F11243019305D3193DEF6CF013D
S1130D700895462F4770405D4193B3E00FD0C9F703
S1130D80F6CF462F4F70405D4A3318F0495D31FD70
S1130D904052419302D0A9F7EACFB4E0A6959795C3
S1130DA0879577956795BA95C9F700976105710599
S1130DB008959B01AC010A2E0694579547953795E3
S1130DC02795BA95C9F7620F731F841F951FA01D3D
S1130DD008952F923F924F925F926F927F928F92DB
S1130DE09F92AF92BF92CF92DF92EF92FF920F93B6
S1130DF01F93CF93DF93CDB7DEB7CA1BDB0B0FB6C0
S1130E00F894DEBF0FBECDBF09942A88398848887C
S1130E105F846E847D848C849B84AA84B984C88412
S1130E20DF80EE80FD800C811B81AA81B981CE0F09
S1130E30D11D0FB6F894DEBF0FBECDBFED010895EE
S1070E40F894FFCF50
S1130E44436D643A202530325800526563656976EF
S1130E54656400436D643A203F0057616974696EA8
S10D0E646720666F7220436D64007E
S9030000FC
