S01A000043616665547261696E41746D6567613332382E73726563B1
S11300000C9434000C9451000C9451000C94510045
S11300100C9451000C9451000C9451000C94510018
S11300200C9451000C9451000C9451000C94510008
S11300300C9451000C9451000C9451000C945100F8
S11300400C9451000C9451000C9451000C945100E8
S11300500C9451000C9451000C9451000C945100D8
S11300600C9451000C94510011241FBECFEFD8E022
S1130070DEBFCDBF11E0A0E0B1E0E6E9FAE002C0E6
S113008005900D92A231B107D9F721E0A2E1B1E0C8
S113009001C01D92A433B207E1F70E94D1010C9470
S11300A049050C9400001092B90088E48093B800CC
S11300B084E08093BC00089584EA8093BC0080911E
S11300C0BC008823E4F7089584E98093BC00809100
S11300D0BC0084FDFCCF08958093BB0084E880932A
S11300E0BC008091BC008823E4F708950F931F930C
S11300F0CF93DF93D82FD07FD62B0D2F086020E12C
S1130100829FC0011124C62FC82B1C2F18600E9487
S11301105C008EE40E946C00802F0E946C008D2F86
S11301208C600E946C00802F0E946C00812F0E94C2
S11301306C008C2F8C600E946C00812F0E946C00DC
S11301400E946400DF91CF911F910F91089560E0A8
S11301500E9476008FE39FE10197F1F700C0000051
S1130160089561E00E9476008FE39FE10197F1F723
S113017000C0000008952FEF80E792E021508040F6
S11301809040E1F700C0000083E00E94A7008FE1E7
S11301909EE40197F1F700C0000083E00E94A700ED
S11301A087E592E00197F1F700C0000083E00E9428
S11301B0A70082E00E94A70088E20E94A70088E0CE
S11301C00E94A70081E00E94A7008FE39FE10197AE
S11301D0F1F700C0000086E00E94A7008CE00E94B6
S11301E0A700089581E00E94A7008FE39FE1019793
S11301F0F1F700C000000895CF93DF9300D000D042
S1130200CDB7DEB7198290E49A8394E19B8394E599
S11302109C83E1E0F0E0EC0FFD1FE60FF11D9081FF
S1130220890F80680E94A7000F900F900F900F9085
S1130230DF91CF910895CF93DF93EC0103C0219612
S11302400E94B10088818111FACFDF91CF91089586
S1130250AF92BF92CF92DF92EF92FF920F931F93D0
S1130260CF93DF93CDB7DEB7FC010DB71EB7DC012A
S11302700D900020E9F711979D01281B390B8091FF
S1130280130190E001966FEF70E00E9422028093C8
S113029013019DEC899F912D112492959F70990FC4
S11302A0990F492F440F440F940F981307C081E00E
S11302B090911201911180E08093120180911201BA
S11302C0882329F1CDB6DEB67901FF24C701019652
S11302D02DB73EB7281B390B0FB6F8943EBF0FBE9F
S11302E02DBF8DB79EB701965C01A70160E270E057
S11302F00E944A02F501EE0DFF1D1082C5010E9405
S11303001B010FB6F894DEBE0FBECDBE03C0CF01F5
S11303100E941B010FB6F8941EBF0FBE0DBFDF91E4
S1130320CF911F910F91FF90EF90DF90CF90BF90EE
S1130330AF900895EF92FF920F931F93CF93DF93A3
S11303408C017B01EA0160E080E00E94FC00C801AE
S11303500E941B0161E080E00E94FC00219721F4CF
S1130360C7010E94280103C0C7010E941B01DF913D
S1130370CF911F910F91FF90EF9008951092C500B7
S113038087E68093C40088E18093C10086E080936F
S1130390C20008958091C0008823E4F78091C600CC
S11303A008950E9453000E94BB000E94F2000E9424
S11303B0BE010E9415028091C00088231CF40E9493
S11303C0CA0101C08DE29EE0E0E0F1E0A4E2B1E008
S11303D001900D929A95E1F71F928F938EE091E030
S11303E09F938F931F9280E18F9384E191E09F9379
S11303F08F930E94510240E050E064E171E084E296
S113040091E00E949A012FEF85EA9EE021508040FE
S11304109040E1F700C000008DB79EB708960FB674
S1130420F8949EBF0FBE8DBFC6CF84B18D6184B9D1
S11304308AB180688AB985B1827E85B98BB18F779C
S11304408BB9089597FB072E16F4009407D077FD17
S113045009D00E94360207FC05D03EF490958195A0
S11304609F4F0895709561957F4F0895AA1BBB1BFC
S113047051E107C0AA1FBB1FA617B70710F0A61BA0
S1130480B70B881F991F5A95A9F780959095BC01C1
S1130490CD010895DC0101C06D9341505040E0F757
S11304A00895AEE0B0E0E7E5F2E00C9420050D8994
S11304B01E898F89988D26E02C831A83098397FFE0
S11304C002C080E090E801979E838D83AE01455E73
S11304D05F4F698D7A8DCE0101960E9481024D8114
S11304E05E8157FD0AC02F813885421753070CF4EB
S11304F09A01F801E20FF31F10822E96E4E00C94A7
S11305003C05ABE0B0E0E7E8F2E00C9412056C01C6
S11305107B018A01FC0117821682838181FFCCC191
S1130520CE0101963C01F6019381F70193FD85917B
S113053093FF81917F01882309F4BAC1853239F48C
S113054093FD859193FF81917F01853229F4B60152
S113055090E00E947804E7CF912C212C312CFFE10C
S1130560F315D8F08B3279F038F4803279F0833295
S1130570A1F4232D20611DC08D3261F0803369F414
S1130580232D216016C0832D8260382EE32DE46074
S11305903E2E2AC0F32DF8601DC037FC2DC020ED7F
S11305A0280F2A3040F08E32B9F436FC81C1232D55
S11305B02064322E19C036FE06C08AE0989E200DB3
S11305C01124922E11C0EAE02E9E200D1124222E19
S11305D0F32DF0623F2E08C08C3621F4832D806801
S11305E0382E02C0883641F4F70193FD859193FFBC
S11305F081917F018111B3CF982F9F7D95549330C2
S113060028F40C5F1F4F9FE399830DC0833631F0AC
S1130610833771F0833509F059C021C0F801808116
S113062089830E5F1F4F88248394912C530113C038
S11306302801F2E04F0E511CF801A080B18036FE73
S113064003C0692D70E002C06FEF7FEFC5010E9407
S11306506D044C018201F32DFF773F2E16C0280153
S113066022E0420E511CF801A080B18036FE03C086
S1130670692D70E002C06FEF7FEFC5010E94620434
S11306804C01F32DF0683F2E820133FC1BC0822DF8
S113069090E088169906B0F4B60180E290E00E94DA
S11306A078042A94F4CFF50137FC859137FE8191C3
S11306B05F01B60190E00E94780421102A9421E0A1
S11306C0821A91088114910471F7E8C0843611F0FC
S11306D0893641F5F80137FE07C060817181828156
S11306E093810C5F1F4F08C060817181072E000C3D
S11306F0880B990B0E5F1F4FF32DFF763F2E97FF4C
S113070009C090958095709561957F4F8F4F9F4F4D
S1130710F0683F2E2AE030E0A3010E94B404882E42
S1130720861845C0853731F4232D2F7EB22E2AE05A
S113073030E025C0932D997FB92E8F36C1F018F47F
S1130740883579F0B5C0803719F0883721F0B0C00A
S1130750E92FE061BE2EB4FE0DC0FB2DF460BF2E68
S113076009C034FE0AC0292F2660B22E06C028E034
S113077030E005C020E130E002C020E132E0F801C1
S1130780B7FE07C060817181828193810C5F1F4F26
S113079006C06081718180E090E00E5F1F4FA3016D
S11307A00E94B404882E8618FB2DFF773F2E36FE58
S11307B00DC0232D2E7FA22E891458F434FE0BC0B5
S11307C032FC09C0832D8E7EA82E05C0B82CA32C24
S11307D003C0B82C01C0B92CA4FE0FC0FE01E80D63
S11307E0F11D8081803321F49A2D997EA92E09C0B0
S11307F0A2FE06C0B394B39404C08A2D867809F08F
S1130800B394A3FC11C0A0FE06C0B21488F4280C53
S1130810922C9B180EC0B21460F4B60180E290E0F2
S11308200E947804B394F7CFB21418F42B1802C0C2
S1130830982C212CA4FE10C0B60180E390E00E9405
S11308407804A2FE17C0A1FC03C088E790E002C0B0
S113085088E590E0B6010CC08A2D867859F0A1FE97
S113086002C08BE201C080E2A7FC8DE2B60190E0F9
S11308700E947804891438F4B60180E390E00E9461
S113088078049A94F7CF8A94F301E80DF11D8081DE
S1130890B60190E00E9478048110F5CF222009F47B
S11308A042CEB60180E290E00E9478042A94F6CF0A
S11308B0F6018681978102C08FEF9FEF2B96E2E1CC
S11308C00C942E05FC010590615070400110D8F77E
S11308D0809590958E0F9F1F0895FC016150704084
S11308E001900110D8F7809590958E0F9F1F089561
S11308F00F931F93CF93DF93FB01238121FD03C04B
S11309008FEF9FEF2CC022FF16C0468157812481B0
S113091035814217530744F4A081B1819D012F5FB3
S11309203F4F318320838C93268137812F5F3F4F44
S11309303783268314C08B01EC01FB010084F1850D
S1130940E02D0995892BE1F6D80116968D919C919D
S11309501797019617969C938E931697CE01DF9165
S1130960CF911F910F910895FA01AA27283051F1D0
S1130970203181F1E8946F936E7F6E5F7F4F8F4FCC
S11309809F4FAF4FB1E03ED0B4E03CD0670F781F2B
S1130990891F9A1FA11D680F791F8A1F911DA11D10
S11309A06A0F711D811D911DA11D20D009F4689449
S11309B03F912AE0269F11243019305D3193DEF6F1
S11309C0CF010895462F4770405D4193B3E00FD0A7
S11309D0C9F7F6CF462F4F70405D4A3318F0495D92
S11309E031FD4052419302D0A9F7EACFB4E0A69575
S11309F09795879577956795BA95C9F70097610597
S1130A00710508959B01AC010A2E069457954795EC
S1130A1037952795BA95C9F7620F731F841F951FE1
S1130A20A01D08952F923F924F925F926F927F92F2
S1130A308F929F92AF92BF92CF92DF92EF92FF92EA
S1130A400F931F93CF93DF93CDB7DEB7CA1BDB0B96
S1130A500FB6F894DEBF0FBECDBF09942A8839883B
S1130A6048885F846E847D848C849B84AA84B98442
S1130A70C884DF80EE80FD800C811B81AA81B9814E
S1130A80CE0FD11D0FB6F894DEBF0FBECDBFED0162
S1090A900895F894FFCF65
S1130A96436F6E74726F6C2050616E656C002563D3
S1050AA600004A
S9030000FC
