S01A000043616665547261696E41746D6567613332382E73726563B1
S11300000C9434000C9451000C9451000C94510045
S11300100C9451000C9451000C9451000C94510018
S11300200C9451000C9451000C9451000C94510008
S11300300C9451000C9451000C94A0030C945100A6
S11300400C9451000C9451000C9451000C945100E8
S11300500C9451000C9451000C9451000C945100D8
S11300600C9451000C94510011241FBECFEFD8E022
S1130070DEBFCDBF11E0A0E0B1E0E2E2FFE002C0EC
S113008005900D92AC33B107D9F721E0ACE3B1E0B0
S113009001C01D92AA34B207E1F70E9468020C94D1
S11300A08F070C940000CF93DF9300D01F92CDB73D
S11300B0DEB70E947E000E94E6000E941D010E949D
S11300C0B7030E948F030E9472030E942A031982BD
S11300D01A821B8263E0CE0101960E945A0378942F
S11300E040E050E060E071E087E091E00E94C501EB
S11300F00F900F900F90DF91CF9108951092B90057
S113010088E48093B80084E08093BC00089584EA76
S11301108093BC008091BC008823E4F7089584E9AF
S11301208093BC008091BC0084FDFCCF0895809333
S1130130BB0084E88093BC008091BC008823E4F772
S113014008950F931F93CF93DF93D82FD07FD62B8F
S11301500D2F086020E1829FC0011124C62FC82BF7
S11301601C2F18600E9487008EE40E949700802F45
S11301700E9497008D2F8C600E949700802F0E9410
S11301809700812F0E9497008C2F8C600E9497000B
S1130190812F0E9497000E948F00DF91CF911F91C1
S11301A00F91089560E00E94A1008FE39FE1019701
S11301B0F1F700C00000089561E00E94A1008FE300
S11301C09FE10197F1F700C0000008952FEF80E749
S11301D092E0215080409040E1F700C0000083E0AD
S11301E00E94D2008FE19EE40197F1F700C0000065
S11301F083E00E94D20087E592E00197F1F700C006
S1130200000083E00E94D20082E00E94D20088E2D3
S11302100E94D20088E00E94D20081E00E94D200B5
S11302208FE39FE10197F1F700C0000086E00E9490
S1130230D2008CE00E94D200089581E00E94D20096
S11302408FE39FE10197F1F700C000000895CF9379
S1130250DF9300D000D0CDB7DEB7198290E49A8343
S113026094E19B8394E59C83E1E0F0E0EC0FFD1FB7
S1130270E60FF11D9081890F80680E94D2000F90D3
S11302800F900F900F90DF91CF910895CF93DF934C
S1130290EC0103C021960E94DC0088818111FACF11
S11302A0DF91CF910895AF92BF92CF92DF92EF92F8
S11302B0FF920F931F93CF93DF93CDB7DEB7FC016B
S11302C00DB71EB7DC010D900020E9F711979D01D1
S11302D0281B390B80913D0190E001966FEF70E08F
S11302E00E94680480933D019DEC899F912D112407
S11302F092959F70990F990F492F440F440F940FB3
S1130300981307C081E090913C01911180E08093A3
S11303103C0180913C01882329F1CDB6DEB67901F8
S1130320FF24C70101962DB73EB7281B390B0FB622
S1130330F8943EBF0FBE2DBF8DB79EB701965C01EA
S1130340A70160E270E00E949004F501EE0DFF1D2C
S11303501082C5010E9446010FB6F894DEBE0FBE9E
S1130360CDBE03C0CF010E9446010FB6F8941EBF54
S11303700FBE0DBFDF91CF911F910F91FF90EF90B2
S1130380DF90CF90BF90AF900895EF92FF920F93BC
S11303901F93CF93DF938C017B01EA0160E080E03F
S11303A00E942701C8010E94460161E080E00E948A
S11303B02701219721F4C7010E94530103C0C701FB
S11303C00E944601DF91CF911F910F91FF90EF9012
S11303D008950F931F93CF93DF93CDB7DEB7609744
S11303E00FB6F894DEBF0FBECDBF1F928F9387E187
S11303F091E09F938F931F9280E18F938E010F5F03
S11304001F4F1F930F930E9497040E941D0140E009
S113041050E0B80181E291E00E94C5010FB6F89462
S1130420DEBF0FBECDBF60960FB6F894DEBF0FBE21
S1130430CDBFDF91CF911F910F9108950F931F931B
S1130440CF93DF9300D01F92CDB7DEB79923C1F1CC
S1130450072F162F613211F1603319F0603269F5FC
S11304600EC019821A821B8263E0CE0101960E949B
S11304705A0310924701812F0E9462041EC0862FE6
S11304800E94620480914701811117C07FEF700FB1
S113049070933E0181E0809347010FC019821A8254
S11304A01B8282E08B8363E0CE0101960E945A0393
S11304B010924701812F0E946204812F0E94E9015A
S11304C00F900F900F90DF91CF911F910F9108958E
S11304D00E9453000E940B030E9420040E941E02EB
S11304E0809147018823B1F380913E010E947902F3
S11304F0F1CFCF93DF9300D01F92CDB7DEB719822F
S11305001A821B829091460191111FC0E82FF0E0DE
S1130510EE0FFF1FE65DFE4F8081918190934501B0
S113052080934401109243018091480190914901C4
S1130530A0E0B0E080933F0190934001A09341017B
S1130540B093420181E080934601809148019091EB
S11305504901A0E0B0E040913F0150914001609119
S1130560410170914201841B950BA60BB70B843F8C
S11305709140A105B10508F448C0809148019091CB
S11305804901A0E0B0E080933F0190934001A09323
S11305904101B093420140914301642F70E081E036
S11305A090E0042E02C0880F991F0A94E2F720916C
S11305B044013091450128233923232B61F048302D
S11305C010F4898308C06850710981E001C0880F64
S11305D06A95EAF78A8363E0CE0101960E945A0382
S11305E0809143018F5F80934301803170F01092BA
S11305F0430119821A821B8263E0CE0101960E9494
S11306005A0310924701109246010F900F900F90D9
S1130610DF91CF9108958BB18F7B8BB900C000C05F
S113062000008BB180648BB920E080E010C0880F9B
S11306309BB19F7D9BB900C000C000004F998160B1
S11306409BB190629BB900C000C000002F5F2830AE
S113065070F308958AB18C618AB98BB1837E8BB9AA
S1130660089590E01CC047E050E0491B5109282F31
S113067030E002C0359527954A95E2F720FF04C083
S11306802BB124602BB903C02BB12B7F2BB92BB119
S113069028602BB900002BB1277F2BB99F5F9830BE
S11306A010F308958BB180618BB900008BB18F7EFC
S11306B08BB908950F931F93CF93DF938C01D62F9B
S11306C0C0E007C0F801EC0FF11D80810E943103E6
S11306D0CF5FCD17B8F30E945203DF91CF911F91E2
S11306E00F910895CF93DF9300D01F92CDB7DEB75B
S11306F08AB180668AB98AB18F778AB98BB18F77CC
S11307008BB919821A821B8263E0CE0101960E9482
S11307105A030F900F900F90DF91CF91089584B5F5
S1130720826084BD85B5836085BD89EF87BDEEE6B3
S1130730F0E080818260808380818260808308957C
S11307401F920F920FB60F9211248F939F93809153
S11307504801909149010196909349018093480181
S11307609F918F910F900FBE0F901F90189510922C
S1130770C50087E68093C40088E18093C10086E0C9
S11307808093C20008959091C00095FFFCCF8093A0
S1130790C600089588EA91E602C0019739F02091D5
S11307A0C0002223D4F78091C60008958FEF0895E6
S11307B0AC0130E08FEF14C0FA01E30FF11D90811A
S11307C0892720E00AC0882334F490E0880F991F19
S11307D097E0892701C0880F2F5F2830A0F33F5F7F
S11307E0361750F308951F93CF93DF9300D000D0B2
S11307F000D0CDB7DEB792E099838A836B834C83B4
S113080063E0CE0102960E94D8038D8383E08E8339
S113081010E00AC0E1E0F0E0EC0FFD1FE10FF11D74
S113082080810E94C3031F5F1630A0F326960FB683
S1130830F894DEBF0FBECDBFDF91CF911F91089515
S1130840EF92FF921F93CF93DF9300D000D000D09C
S1130850CDB7DEB70E94CA03823029F060E070E0B1
S113086080E090E023C082E0898311E00CC0E12E97
S1130870F12C0E94CA03E1E0F0E0EC0FFD1FEE0D45
S1130880FF1D80831F5F163090F363E0CE01029654
S11308900E94D8039D81891729F060E070E080E010
S11308A090E004C06A817B818C8191E026960FB62A
S11308B0F894DEBF0FBECDBFDF91CF911F91FF90A3
S11308C0EF90089540E0682F80E40E94F3030895B8
S11308D097FB072E16F4009407D077FD09D00E94E9
S11308E07C0407FC05D03EF4909581959F4F0895B4
S11308F0709561957F4F0895AA1BBB1B51E107C0FA
S1130900AA1FBB1FA617B70710F0A61BB70B881F9B
S1130910991F5A95A9F780959095BC01CD0108952A
S1130920DC0101C06D9341505040E0F70895AEE002
S1130930B0E0EDE9F4E00C9466070D891E898F8917
S1130940988D26E02C831A83098397FF02C080E0E8
S113095090E801979E838D83AE01455E5F4F698D5C
S11309607A8DCE0101960E94C7044D815E8157FDA8
S11309700AC02F813885421753070CF49A01F801F5
S1130980E20FF31F10822E96E4E00C948207ABE092
S1130990B0E0EDECF4E00C9458076C017B018A01A3
S11309A0FC0117821682838181FFCCC1CE0101969E
S11309B03C01F6019381F70193FD859193FF8191A9
S11309C07F01882309F4BAC1853239F493FD8591F6
S11309D093FF81917F01853229F4B60190E00E9452
S11309E0BE06E7CF912C212C312CFFE1F315D8F072
S11309F08B3279F038F4803279F08332A1F4232DEC
S1130A0020611DC08D3261F0803369F4232D216093
S1130A1016C0832D8260382EE32DE4603E2E2AC05A
S1130A20F32DF8601DC037FC2DC020ED280F2A30AF
S1130A3040F08E32B9F436FC81C1232D2064322E6D
S1130A4019C036FE06C08AE0989E200D1124922E0D
S1130A5011C0EAE02E9E200D1124222EF32DF06207
S1130A603F2E08C08C3621F4832D8068382E02C0B6
S1130A70883641F4F70193FD859193FF81917F01BD
S1130A808111B3CF982F9F7D9554933028F40C5F38
S1130A901F4F9FE399830DC0833631F0833771F084
S1130AA0833509F059C021C0F801808189830E5F24
S1130AB01F4F88248394912C530113C02801F2E022
S1130AC04F0E511CF801A080B18036FE03C0692D81
S1130AD070E002C06FEF7FEFC5010E94B3064C01C6
S1130AE08201F32DFF773F2E16C0280122E0420E2B
S1130AF0511CF801A080B18036FE03C0692D70E05E
S1130B0002C06FEF7FEFC5010E94A8064C01F32DD0
S1130B10F0683F2E820133FC1BC0822D90E08816C2
S1130B209906B0F4B60180E290E00E94BE062A94D1
S1130B30F4CFF50137FC859137FE81915F01B60151
S1130B4090E00E94BE0621102A9421E0821A9108A6
S1130B508114910471F7E8C0843611F0893641F5A7
S1130B60F80137FE07C060817181828193810C5F37
S1130B701F4F08C060817181072E000C880B990BF0
S1130B800E5F1F4FF32DFF763F2E97FF09C0909500
S1130B908095709561957F4F8F4F9F4FF0683F2EE2
S1130BA02AE030E0A3010E94FA06882E861845C088
S1130BB0853731F4232D2F7EB22E2AE030E025C074
S1130BC0932D997FB92E8F36C1F018F4883579F0BA
S1130BD0B5C0803719F0883721F0B0C0E92FE06143
S1130BE0BE2EB4FE0DC0FB2DF460BF2E09C034FE32
S1130BF00AC0292F2660B22E06C028E030E005C0C6
S1130C0020E130E002C020E132E0F801B7FE07C085
S1130C1060817181828193810C5F1F4F06C0608166
S1130C20718180E090E00E5F1F4FA3010E94FA06DD
S1130C30882E8618FB2DFF773F2E36FE0DC0232D00
S1130C402E7FA22E891458F434FE0BC032FC09C046
S1130C50832D8E7EA82E05C0B82CA32C03C0B82CDF
S1130C6001C0B92CA4FE0FC0FE01E80DF11D808166
S1130C70803321F49A2D997EA92E09C0A2FE06C0C4
S1130C80B394B39404C08A2D867809F0B394A3FC7A
S1130C9011C0A0FE06C0B21488F4280C922C9B1834
S1130CA00EC0B21460F4B60180E290E00E94BE0669
S1130CB0B394F7CFB21418F42B1802C0982C212C3B
S1130CC0A4FE10C0B60180E390E00E94BE06A2FE1E
S1130CD017C0A1FC03C088E790E002C088E590E05B
S1130CE0B6010CC08A2D867859F0A1FE02C08BE2B1
S1130CF001C080E2A7FC8DE2B60190E00E94BE062E
S1130D00891438F4B60180E390E00E94BE069A94F8
S1130D10F7CF8A94F301E80DF11D8081B60190E0CC
S1130D200E94BE068110F5CF222009F442CEB601FE
S1130D3080E290E00E94BE062A94F6CFF6018681F6
S1130D40978102C08FEF9FEF2B96E2E10C9474071A
S1130D50FC010590615070400110D8F78095909582
S1130D608E0F9F1F0895FC01615070400190011087
S1130D70D8F7809590958E0F9F1F08950F931F931A
S1130D80CF93DF93FB01238121FD03C08FEF9FEFFE
S1130D902CC022FF16C04681578124813581421719
S1130DA0530744F4A081B1819D012F5F3F4F3183EC
S1130DB020838C93268137812F5F3F4F378326838F
S1130DC014C08B01EC01FB010084F185E02D099531
S1130DD0892BE1F6D80116968D919C91179701966F
S1130DE017969C938E931697CE01DF91CF911F9106
S1130DF00F910895FA01AA27283051F1203181F189
S1130E00E8946F936E7F6E5F7F4F8F4F9F4FAF4F0E
S1130E10B1E03ED0B4E03CD0670F781F891F9A1F21
S1130E20A11D680F791F8A1F911DA11D6A0F711DD5
S1130E30811D911DA11D20D009F468943F912AE0E1
S1130E40269F11243019305D3193DEF6CF010895C9
S1130E50462F4770405D4193B3E00FD0C9F7F6CFFA
S1130E60462F4F70405D4A3318F0495D31FD4052C2
S1130E70419302D0A9F7EACFB4E0A6959795879558
S1130E8077956795BA95C9F7009761057105089537
S1130E909B01AC010A2E06945795479537952795E3
S1130EA0BA95C9F7620F731F841F951FA01D08957B
S1130EB02F923F924F925F926F927F928F929F9266
S1130EC0AF92BF92CF92DF92EF92FF920F931F9354
S1130ED0CF93DF93CDB7DEB7CA1BDB0B0FB6F89405
S1130EE0DEBF0FBECDBF09942A88398848885F8445
S1130EF06E847D848C849B84AA84B984C884DF80B6
S1130F00EE80FD800C811B81AA81B981CE0FD11D99
S1130F100FB6F894DEBF0FBECDBFED010895F8946F
S1050F20FFCFFD
S1130F22436D643A203F0057616974696E672066B5
S1130F326F7220436D6400436D643A202530325849
S1130F4200526563656976656400010006001A0053
S10F0F526A00AA01AA06AA1AAA6AAAAA9E
S9030000FC
