:100000000C9434000C9451000C9451000C94510049
:100010000C9451000C9451000C9451000C9451001C
:100020000C9451000C9451000C9451000C9451000C
:100030000C9451000C9451000C945E050C945100EA
:100040000C9451000C9451000C9451000C945100EC
:100050000C9451000C9451000C9451000C945100DC
:100060000C9451000C94510011241FBECFEFD8E026
:10007000DEBFCDBF11E0A0E0B1E0EEE9F2E102C0E9
:1000800005900D92A634B107D9F721E0A6E4B1E0BE
:1000900001C01D92AA35B207E1F70E9483030C94B8
:1000A0004D090C940000CF93DF9300D01F92CDB781
:1000B000DEB70E948D000E94F5000E942C010E9474
:1000C00075050E944D050E9430050E94E8040E94BB
:1000D000A0030E94BE0384B1806284B984B18160B0
:1000E00084B984B1806184B919821A821B8263E069
:1000F000CE0101960E9418050E94AC02789440E05F
:1001000050E063E071E08AE091E00E94D4010F903A
:100110000F900F90DF91CF9108951092B90088E46D
:100120008093B80084E08093BC00089584EA8093B3
:10013000BC008091BC008823E4F7089584E9809393
:10014000BC008091BC0084FDFCCF08958093BB006F
:1001500084E88093BC008091BC008823E4F7089574
:100160000F931F93CF93DF93D82FD07FD62B0D2FD4
:10017000086020E1829FC0011124C62FC82B1C2FCC
:1001800018600E9496008EE40E94A600802F0E94B4
:10019000A6008D2F8C600E94A600802F0E94A600D2
:1001A000812F0E94A6008C2F8C600E94A600812FB8
:1001B0000E94A6000E949E00DF91CF911F910F9197
:1001C000089560E00E94B0008FE39FE10197F1F78E
:1001D00000C00000089561E00E94B0008FE39FE13D
:1001E0000197F1F700C0000008952FEF80E792E03B
:1001F000215080409040E1F700C0000083E00E9461
:10020000E1008FE19EE40197F1F700C0000083E078
:100210000E94E10087E592E00197F1F700C000003D
:1002200083E00E94E10082E00E94E10088E20E94F7
:10023000E10088E00E94E10081E00E94E1008FE39C
:100240009FE10197F1F700C0000086E00E94E10005
:100250008CE00E94E100089581E00E94E1008FE3BC
:100260009FE10197F1F700C000000895CF93DF935D
:1002700000D000D0CDB7DEB7198290E49A8394E124
:100280009B8394E59C83E1E0F0E0EC0FFD1FE60F1B
:10029000F11D9081890F80680E94E1000F900F90FE
:1002A0000F900F90DF91CF910895CF93DF93EC01E2
:1002B00003C021960E94EB0088818111FACFDF9163
:1002C000CF910895AF92BF92CF92DF92EF92FF92BB
:1002D0000F931F93CF93DF93CDB7DEB7FC010DB71C
:1002E0001EB7DC010D900020E9F711979D01281B36
:1002F000390B8091480190E001966FEF70E00E9409
:100300002606809348019DEC899F912D112492959A
:100310009F70990F990F492F440F440F940F981312
:1003200007C081E090914701911180E080934701DF
:1003300080914701882329F1CDB6DEB67901FF24EB
:10034000C70101962DB73EB7281B390B0FB6F8949D
:100350003EBF0FBE2DBF8DB79EB701965C01A701B2
:1003600060E270E00E944E06F501EE0DFF1D108266
:10037000C5010E9455010FB6F894DEBE0FBECDBE7A
:1003800003C0CF010E9455010FB6F8941EBF0FBEE7
:100390000DBFDF91CF911F910F91FF90EF90DF90F4
:1003A000CF90BF90AF900895EF92FF920F931F935D
:1003B000CF93DF938C017B01EA0160E080E00E9433
:1003C0003601C8010E94550161E080E00E943601BB
:1003D000219721F4C7010E94620103C0C7010E9456
:1003E0005501DF91CF911F910F91FF90EF900895EC
:1003F0000F931F93CF93DF93CDB7DEB761970FB6FF
:10040000F894DEBF0FBECDBF1F926F931F928F93E4
:100410008AE191E09F938F931F9281E18F938E01E8
:100420000F5F1F4F1F930F930E945506F801019015
:100430000020E9F73197E01B0FB6F894DEBF0FBE3E
:10044000CDBF09C0A1E0B0E0AC0FBD1FAE0FB11D24
:1004500080E28C93EF5FE031A8F3198A60E080E0DE
:100460000E943601CE0101960E94550161960FB699
:10047000F894DEBF0FBECDBFDF91CF911F910F91DA
:100480000895CF93DF93CDB7DEB761970FB6F89499
:10049000DEBF0FBECDBF90E01AC0292F30E067E06D
:1004A00070E0621B730B482F50E002C055954795D2
:1004B0006A95E2F740FF02C041E301C040E3E1E09A
:1004C000F0E0EC0FFD1FE20FF31F40839F5F9830B9
:1004D00020F3198661E080E00E943601CE0101968A
:1004E0000E94550161960FB6F894DEBF0FBECDBFD6
:1004F000DF91CF9108950E94AE038FE790E0909333
:10050000890080938800089585B1816085B9089538
:100510001F93CF93DF9300D01F92CDB7DEB7182F74
:1005200085B18F7D85B90E94840219821A821B824F
:10053000E12FF0E0E45DFE4F80818B8363E0CE012C
:1005400001960E9418050E94CD030F900F900F9006
:10055000DF91CF911F91089585B18E7F85B9089560
:10056000CF93DF9300D01F92CDB7DEB785B18F7DDB
:1005700085B985B18F7E85B90E94BE0319821A8222
:100580001B8263E0CE0101960E9418050E942E0492
:10059000109246010E94AC020F900F900F90DF91D5
:1005A000CF91089585B1806285B908951F93CF9347
:1005B000DF9300D01F92CDB7DEB71FEF180F0E9458
:1005C000B0020E94D2020E9484020E94CD031982CE
:1005D0001A821B82E12FF0E0E45DFE4F80818B8365
:1005E00063E0CE0101960E941805109246010F901B
:1005F0000F900F90DF91CF911F91089583B1829555
:100600008695877091E089278170089588232CF45E
:1006100010924A010E94B0020AC086FF03C00E94E5
:100620007B0205C090914A01892B80934A018091F9
:100630004A010E944102089584FF05C010924A01B8
:100640000E94B0020AC085FF03C00E947B0205C061
:1006500090914A01892B80934A0180914A010E941E
:10066000410208950E94C904809580934C019091A5
:1006700000018917A9F09827982390934B01809344
:100680000001992369F00E94FE02882329F08091DD
:100690004B010E940603089580914B010E941C03A8
:1006A0000895CF93DF93992359F1D72FC62F613245
:1006B000D1F0603319F06032F1F406C00E94B0024C
:1006C0008C2F0E94200617C00E94B0028C2F0E941F
:1006D00020068091460181110EC0D093490181E02E
:1006E0008093460108C070934901872F0E94D6026B
:1006F0008C2F0E942006609149018C2F0E94F801E6
:10070000DF91CF9108950E9453000E94320380919F
:100710004C0190910001891721F0809300010E9403
:1007200041020E94DE050E9451030E94E90380916C
:100730004601882351F3809149010E943104E5CF9D
:1007400084B1826084B981E88093800089E08093DD
:1007500081001092890010928800089510928900FB
:100760001092880085B1806185B9E0E8F0E0808171
:100770008068808384B1826084B9089510925101A9
:100780001092890010928800E0E8F0E080818F7775
:10079000808385B18D7F85B90895109202011092F2
:1007A000010110928900109288000E94AE0380918E
:1007B000580190915901A0E0B0E080934D019093D1
:1007C0004E01A0934F01B093500181E080935101FD
:1007D000089580915101882309F43FC08091580108
:1007E00090915901A0E0B0E040914D0150914E012F
:1007F00060914F0170915001841B950BA60BB70BB4
:10080000C297A105B10548F1809158019091590115
:10081000A0E0B0E080934D0190934E01A0934F0172
:10082000B093500180910101909102018F3F910599
:1008300009F060F49C012F5F3F4F30930201209339
:1008400001019093890080938800089585B18F7E7F
:1008500085B90E94BE03109251010895109257016C
:1008600008950F931F93CF93DF9300D01F92CDB7BE
:10087000DEB7182F0E9484026FEF610F19821A826F
:100880001B8280915701811113C0109256018091F3
:10089000580190915901A0E0B0E0809352019093EB
:1008A0005301A0935401B093550181E08093570107
:1008B0008091580190915901A0E0B0E0009152015F
:1008C000109153012091540130915501801B910BDF
:1008D000A20BB30B843F9140A105B10508F451C0B0
:1008E0008091580190915901A0E0B0E080935201AD
:1008F00090935301A0935401B093550104C081E03B
:10090000890F80935601909156019031A0F4E62F03
:10091000F0E0EE0FFF1FEC5CFE4F4081518121E0C3
:1009200030E0092E02C0220F331F0A94E2F724237D
:100930003523232B21F39031E8F4983038F481E00B
:1009400001C0880F9A95EAF7898309C0892F90E042
:10095000089791E001C0990F8A95EAF79A8363E0BE
:10096000CE0101960E941805809156018F5F8093F9
:10097000560107C0862F0E948802109246011092ED
:1009800057010F900F900F90DF91CF911F910F9112
:1009900008958BB18F7B8BB900C000C000008BB174
:1009A00080648BB920E080E010C0880F9BB19F7DF0
:1009B0009BB900C000C000004F9981609BB190625C
:1009C0009BB900C000C000002F5F283070F308956D
:1009D0008AB18C618AB98BB1837E8BB9089590E01E
:1009E0001CC047E050E0491B5109282F30E002C0ED
:1009F000359527954A95E2F720FF04C02BB1246076
:100A00002BB903C02BB12B7F2BB92BB128602BB98D
:100A100000002BB1277F2BB99F5F983010F308950A
:100A20008BB180618BB900008BB18F7E8BB908953B
:100A30000F931F93CF93DF938C01D62FC0E007C095
:100A4000F801EC0FF11D80810E94EF04CF5FCD17FC
:100A5000B8F30E941005DF91CF911F910F91089577
:100A6000CF93DF9300D01F92CDB7DEB78AB18066F7
:100A70008AB98AB18F778AB98BB18F778BB919828E
:100A80001A821B8263E0CE0101960E9418050F9026
:100A90000F900F90DF91CF91089584B5826084BD4F
:100AA00085B5836085BD89EF87BDEEE6F0E0808186
:100AB0008260808380818260808308951F920F927C
:100AC0000FB60F9211248F939F93809158019091AC
:100AD0005901019690935901809358019F918F91EC
:100AE0000F900FBE0F901F9018951092C50087E6CB
:100AF0008093C40088E18093C10086E08093C200A7
:100B000008959091C00095FFFCCF8093C600089592
:100B100088EA91E602C0019739F02091C0002223B3
:100B2000D4F78091C60008958FEF0895AC0130E0AE
:100B30008FEF14C0FA01E30FF11D9081892720E0A7
:100B40000AC0882334F490E0880F991F97E0892722
:100B500001C0880F2F5F2830A0F33F5F361750F396
:100B600008951F93CF93DF9300D000D000D0CDB76E
:100B7000DEB792E099838A836B834C8363E0CE0176
:100B800002960E9496058D8383E08E8310E00AC052
:100B9000E1E0F0E0EC0FFD1FE10FF11D80810E940C
:100BA00081051F5F1630A0F326960FB6F894DEBFBE
:100BB0000FBECDBFDF91CF911F910895EF92FF92AD
:100BC0001F93CF93DF9300D000D000D0CDB7DEB716
:100BD0000E948805823029F060E070E080E090E0BB
:100BE00023C082E0898311E00CC0E12EF12C0E9429
:100BF0008805E1E0F0E0EC0FFD1FEE0DFF1D8083A6
:100C00001F5F163090F363E0CE0102960E949605B6
:100C10009D81891729F060E070E080E090E004C0D9
:100C20006A817B818C8191E026960FB6F894DEBFB5
:100C30000FBECDBFDF91CF911F91FF90EF90089530
:100C400040E0682F80E40E94B105089597FB072ECD
:100C500016F4009407D077FD09D00E943A0607FCED
:100C600005D03EF4909581959F4F089570956195BC
:100C70007F4F0895AA1BBB1B51E107C0AA1FBB1FD2
:100C8000A617B70710F0A61BB70B881F991F5A9518
:100C9000A9F780959095BC01CD010895DC0101C0B4
:100CA0006D9341505040E0F70895AEE0B0E0EBE5C1
:100CB000F6E00C9424090D891E898F89988D26E011
:100CC0002C831A83098397FF02C080E090E8019784
:100CD0009E838D83AE01455E5F4F698D7A8DCE0117
:100CE00001960E9485064D815E8157FD0AC02F81C5
:100CF0003885421753070CF49A01F801E20FF31FED
:100D000010822E96E4E00C944009ABE0B0E0EBE8F2
:100D1000F6E00C9416096C017B018A01FC01178234
:100D20001682838181FFCCC1CE0101963C01F60180
:100D30009381F70193FD859193FF81917F01882332
:100D400009F4BAC1853239F493FD859193FF8191FD
:100D50007F01853229F4B60190E00E947C08E7CF3C
:100D6000912C212C312CFFE1F315D8F08B3279F046
:100D700038F4803279F08332A1F4232D20611DC034
:100D80008D3261F0803369F4232D216016C0832DEC
:100D90008260382EE32DE4603E2E2AC0F32DF860E9
:100DA0001DC037FC2DC020ED280F2A3040F08E32B8
:100DB000B9F436FC81C1232D2064322E19C036FED1
:100DC00006C08AE0989E200D1124922E11C0EAE000
:100DD0002E9E200D1124222EF32DF0623F2E08C0EE
:100DE0008C3621F4832D8068382E02C0883641F479
:100DF000F70193FD859193FF81917F018111B3CF1D
:100E0000982F9F7D9554933028F40C5F1F4F9FE3DC
:100E100099830DC0833631F0833771F0833509F043
:100E200059C021C0F801808189830E5F1F4F88243B
:100E30008394912C530113C02801F2E04F0E511CF2
:100E4000F801A080B18036FE03C0692D70E002C0B9
:100E50006FEF7FEFC5010E9471084C018201F32DF5
:100E6000FF773F2E16C0280122E0420E511CF801E8
:100E7000A080B18036FE03C0692D70E002C06FEF24
:100E80007FEFC5010E9466084C01F32DF0683F2EEC
:100E9000820133FC1BC0822D90E088169906B0F4C5
:100EA000B60180E290E00E947C082A94F4CFF5011C
:100EB00037FC859137FE81915F01B60190E00E9479
:100EC0007C0821102A9421E0821A9108811491044F
:100ED00071F7E8C0843611F0893641F5F80137FE24
:100EE00007C060817181828193810C5F1F4F08C0B0
:100EF00060817181072E000C880B990B0E5F1F4FCC
:100F0000F32DFF763F2E97FF09C090958095709541
:100F100061957F4F8F4F9F4FF0683F2E2AE030E062
:100F2000A3010E94B808882E861845C0853731F481
:100F3000232D2F7EB22E2AE030E025C0932D997FFD
:100F4000B92E8F36C1F018F4883579F0B5C08037E6
:100F500019F0883721F0B0C0E92FE061BE2EB4FE51
:100F60000DC0FB2DF460BF2E09C034FE0AC0292F2E
:100F70002660B22E06C028E030E005C020E130E057
:100F800002C020E132E0F801B7FE07C06081718144
:100F9000828193810C5F1F4F06C06081718180E068
:100FA00090E00E5F1F4FA3010E94B808882E86189C
:100FB000FB2DFF773F2E36FE0DC0232D2E7FA22E58
:100FC000891458F434FE0BC032FC09C0832D8E7E88
:100FD000A82E05C0B82CA32C03C0B82C01C0B92C76
:100FE000A4FE0FC0FE01E80DF11D8081803321F4C5
:100FF0009A2D997EA92E09C0A2FE06C0B394B3947F
:1010000004C08A2D867809F0B394A3FC11C0A0FE19
:1010100006C0B21488F4280C922C9B180EC0B2148F
:1010200060F4B60180E290E00E947C08B394F7CFB0
:10103000B21418F42B1802C0982C212CA4FE10C056
:10104000B60180E390E00E947C08A2FE17C0A1FCDC
:1010500003C088E790E002C088E590E0B6010CC0CC
:101060008A2D867859F0A1FE02C08BE201C080E291
:10107000A7FC8DE2B60190E00E947C08891438F448
:10108000B60180E390E00E947C089A94F7CF8A949E
:10109000F301E80DF11D8081B60190E00E947C080B
:1010A0008110F5CF222009F442CEB60180E290E013
:1010B0000E947C082A94F6CFF6018681978102C0AF
:1010C0008FEF9FEF2B96E2E10C943209FC01059023
:1010D000615070400110D8F7809590958E0F9F1F3A
:1010E0000895FC016150704001900110D8F780957F
:1010F00090958E0F9F1F08950F931F93CF93DF93AB
:10110000FB01238121FD03C08FEF9FEF2CC022FF45
:1011100016C046815781248135814217530744F414
:10112000A081B1819D012F5F3F4F318320838C933C
:10113000268137812F5F3F4F3783268314C08B0171
:10114000EC01FB010084F185E02D0995892BE1F686
:10115000D80116968D919C911797019617969C939E
:101160008E931697CE01DF91CF911F910F91089525
:10117000FA01AA27283051F1203181F1E8946F93C8
:101180006E7F6E5F7F4F8F4F9F4FAF4FB1E03ED06E
:10119000B4E03CD0670F781F891F9A1FA11D680F0C
:1011A000791F8A1F911DA11D6A0F711D811D911D3F
:1011B000A11D20D009F468943F912AE0269F1124B4
:1011C0003019305D3193DEF6CF010895462F477018
:1011D000405D4193B3E00FD0C9F7F6CF462F4F7073
:1011E000405D4A3318F0495D31FD4052419302D0D1
:1011F000A9F7EACFB4E0A695979587957795679577
:10120000BA95C9F700976105710508959B01AC0176
:101210000A2E06945795479537952795BA95C9F79D
:10122000620F731F841F951FA01D08952F923F9278
:101230004F925F926F927F928F929F92AF92BF92E6
:10124000CF92DF92EF92FF920F931F93CF93DF9392
:10125000CDB7DEB7CA1BDB0B0FB6F894DEBF0FBEEF
:10126000CDBF09942A88398848885F846E847D843C
:101270008C849B84AA84B984C884DF80EE80FD803E
:101280000C811B81AA81B981CE0FD11D0FB6F894B4
:0E129000DEBF0FBECDBFED010895F894FFCF75
:10129E00FF6400436D643A203F0057616974696EC4
:1012AE006720666F7220436D6400434D443A2530CB
:1012BE0033642054424C3A25303264008040201072
:1012CE0008040201010006001A006A00AA01AA061B
:0612DE00AA1AAA6AAAAADE
:00000001FF
