:100000000C9434000C9451000C9451000C94510049
:100010000C9451000C9451000C9451000C9451001C
:100020000C9451000C9451000C9451000C9451000C
:100030000C9451000C9451000C94DE040C9451006B
:100040000C9451000C9451000C9451000C945100EC
:100050000C9451000C9451000C9451000C945100DC
:100060000C9451000C94510011241FBECFEFD8E026
:10007000DEBFCDBF11E0A0E0B1E0EEE9F1E102C0EA
:1000800005900D92A635B107D9F721E0A6E5B1E0BC
:1000900001C01D92AC36B207E1F70E940D030C942B
:1000A000CD080C940000CF93DF9300D01F92CDB702
:1000B000DEB70E9482000E94EA000E9421010E9495
:1000C000F5040E94CD040E94B0040E9468040E94BE
:1000D0002A030E94480319821A821B8263E0CE0120
:1000E00001960E949804789440E050E061E071E04D
:1000F00088E091E00E94C9010F900F900F90DF916E
:10010000CF9108951092B90088E48093B80084E0FC
:100110008093BC00089584EA8093BC008091BC0069
:100120008823E4F7089584E98093BC008091BC00A3
:1001300084FDFCCF08958093BB0084E88093BC00CD
:100140008091BC008823E4F708950F931F93CF9309
:10015000DF93D82FD07FD62B0D2F086020E1829F10
:10016000C0011124C62FC82B1C2F18600E948B00C1
:100170008EE40E949B00802F0E949B008D2F8C603C
:100180000E949B00802F0E949B00812F0E949B0059
:100190008C2F8C600E949B00812F0E949B000E94EC
:1001A0009300DF91CF911F910F91089560E00E941D
:1001B000A5008FE39FE10197F1F700C000000895CB
:1001C00061E00E94A5008FE39FE10197F1F700C075
:1001D000000008952FEF80E792E02150804090408A
:1001E000E1F700C0000083E00E94D6008FE19EE4AA
:1001F0000197F1F700C0000083E00E94D60087E578
:1002000092E00197F1F700C0000083E00E94D60061
:1002100082E00E94D60088E20E94D60088E00E9418
:10022000D60081E00E94D6008FE39FE10197F1F7AD
:1002300000C0000086E00E94D6008CE00E94D6003C
:10024000089581E00E94D6008FE39FE10197F1F7C6
:1002500000C000000895CF93DF9300D000D0CDB749
:10026000DEB7198290E49A8394E19B8394E59C83A2
:10027000E1E0F0E0EC0FFD1FE60FF11D9081890F2A
:1002800080680E94D6000F900F900F900F90DF9122
:10029000CF910895CF93DF93EC0103C021960E9484
:1002A000E00088818111FACFDF91CF910895AF925C
:1002B000BF92CF92DF92EF92FF920F931F93CF9353
:1002C000DF93CDB7DEB7FC010DB71EB7DC010D9093
:1002D0000020E9F711979D01281B390B80915801E7
:1002E00090E001966FEF70E00E94A60580935801A0
:1002F0009DEC899F912D112492959F70990F990FD4
:10030000492F440F440F940F981307C081E0909138
:100310005701911180E08093570180915701882304
:1003200029F1CDB6DEB67901FF24C70101962DB7BC
:100330003EB7281B390B0FB6F8943EBF0FBE2DBF3A
:100340008DB79EB701965C01A70160E270E00E9444
:10035000CE05F501EE0DFF1D1082C5010E944A0178
:100360000FB6F894DEBE0FBECDBE03C0CF010E9413
:100370004A010FB6F8941EBF0FBE0DBFDF91CF919B
:100380001F910F91FF90EF90DF90CF90BF90AF90B3
:100390000895EF92FF920F931F93CF93DF938C01F9
:1003A0007B01EA0160E080E00E942B01C8010E940D
:1003B0004A0161E080E00E942B01219721F4C701EE
:1003C0000E94570103C0C7010E944A01DF91CF91EB
:1003D0001F910F91FF90EF9008950F931F93CF936C
:1003E000DF93CDB7DEB760970FB6F894DEBF0FBED0
:1003F000CDBF1F928F9388E191E09F938F931F92BF
:1004000080E18F938E010F5F1F4F1F930F930E9408
:10041000D5050E94210140E050E0B80182E291E060
:100420000E94C9010FB6F894DEBF0FBECDBF609623
:100430000FB6F894DEBF0FBECDBFDF91CF911F91F5
:100440000F910895CF93DF93CDB7DEB7A1970FB685
:10045000F894DEBF0FBECDBF91E1EBE2F1E0DE012B
:10046000119601900D929A95E1F790E01AC0292F0C
:1004700030E067E070E0621B730B482F50E002C071
:10048000559547956A95E2F740FF02C041E301C0E8
:1004900040E3E2E1F0E0EC0FFD1FE20FF31F4083C9
:1004A0009F5F983020F31A8E0E94210140E050E0B7
:1004B000BE016E5E7F4FCE0101960E94C901A196DA
:1004C0000FB6F894DEBF0FBECDBFDF91CF91089578
:1004D000CF93DF9300D01F92CDB7DEB785B18E7F6B
:1004E00085B90E94480319821A821B8263E0CE01FB
:1004F00001960E9498040E94B103109256010F9039
:100500000F900F90DF91CF910895CF93DF9300D09C
:100510001F92CDB7DEB795B19E7F95B919821A8229
:100520001B82E82FF0E0E45CFE4F80818B8363E068
:10053000CE0101960E9498040E9455030F900F90DF
:100540000F90DF91CF910895CF93DF9300D01F924A
:10055000CDB7DEB70E94680219821A821B8285B16C
:10056000816085B963E0CE0101960E9498041092E3
:1005700056010F900F900F90DF91CF9108950E9438
:100580004904809580935C01909100018917B9F02E
:100590009827982390935B0180930001992379F029
:1005A0002CF410925A010E94680205C080915A01F1
:1005B000982B90935A0180915A010E94220208952B
:1005C000CF93DF93992331F1D72FC62F6132D1F02A
:1005D000603319F06032D9F406C00E9468028C2F93
:1005E0000E94A00514C00E9468028C2F0E94A005E2
:1005F0008091560181110BC0D093590181E0809305
:10060000560105C00E94A4028C2F0E94A0058C2FC9
:100610000E94ED01DF91CF9108950E9453000E9446
:10062000BF0280915C0190910001891721F08093B5
:1006300000010E9422020E945E050E94E0020E94C8
:10064000710380915601882351F3809159010E94D2
:10065000B403E5CF84B1826084B98AB180648AB979
:1006600081E88093800089E0809381001092890066
:100670001092880008951092890010928800E0E896
:10068000F0E080818068808384B1826084B90895BD
:100690001092890010928800E0E8F0E080818F7766
:1006A000808385B18D7F85B9089510926201109283
:1006B000610110928900109288000E943B03809192
:1006C0006A0190916B01A0E0B0E080935D0190938E
:1006D0005E01A0935F01B093600181E080936301AC
:1006E0000895809163018823D9F180916A019091E6
:1006F0006B01A0E0B0E040915D0150915E0160911E
:100700005F0170916001841B950BA60BB70B8436BB
:100710009105A105B10520F180916A0190916B01CD
:10072000A0E0B0E080935D0190935E01A0935F0133
:10073000B093600180916101909162018F3F9105BA
:1007400009F060F49C012F5F3F4F309362012093CA
:10075000610190938900809388000895109263014D
:1007600008951092690108950F931F93CF93DF931B
:1007700000D01F92CDB7DEB76FEF680F19821A82D3
:100780001B8280916901811113C0109268018091D0
:100790006A0190916B01A0E0B0E0809364019093B6
:1007A0006501A0936601B093670181E080936901C0
:1007B00080916A0190916B01A0E0B0E0009164012A
:1007C000109165012091660130916701801B910BAA
:1007D000A20BB30B843F9140A105B10508F451C0B1
:1007E00080916A0190916B01A0E0B0E08093640178
:1007F00090936501A0936601B093670104C081E006
:10080000890F80936801909168019031A0F4E62FE0
:10081000F0E0EE0FFF1FEC5BFE4F4081518121E0C5
:1008200030E0092E02C0220F331F0A94E2F724237E
:100830003523232B21F39031E8F4983038F481E00C
:1008400001C0880F9A95EAF7898309C0892F90E043
:10085000089791E001C0990F8A95EAF79A8363E0BF
:10086000CE0101960E949804809168018F5F809369
:10087000680107C0862F0E948502109256011092CF
:1008800069010F900F900F90DF91CF911F910F9101
:1008900008958BB18F7B8BB900C000C000008BB175
:1008A00080648BB920E080E010C0880F9BB19F7DF1
:1008B0009BB900C000C000004F9981609BB190625D
:1008C0009BB900C000C000002F5F283070F308956E
:1008D0008AB18C618AB98BB1837E8BB9089590E01F
:1008E0001CC047E050E0491B5109282F30E002C0EE
:1008F000359527954A95E2F720FF04C02BB1246077
:100900002BB903C02BB12B7F2BB92BB128602BB98E
:1009100000002BB1277F2BB99F5F983010F308950B
:100920008BB180618BB900008BB18F7E8BB908953C
:100930000F931F93CF93DF938C01D62FC0E007C096
:10094000F801EC0FF11D80810E946F04CF5FCD177D
:10095000B8F30E949004DF91CF911F910F910895F9
:10096000CF93DF9300D01F92CDB7DEB78AB18066F8
:100970008AB98AB18F778AB98BB18F778BB919828F
:100980001A821B8263E0CE0101960E9498040F90A8
:100990000F900F90DF91CF91089584B5826084BD50
:1009A00085B5836085BD89EF87BDEEE6F0E0808187
:1009B0008260808380818260808308951F920F927D
:1009C0000FB60F9211248F939F9380916A0190919B
:1009D0006B01019690936B0180936A019F918F91B7
:1009E0000F900FBE0F901F9018951092C50087E6CC
:1009F0008093C40088E18093C10086E08093C200A8
:100A000008959091C00095FFFCCF8093C600089593
:100A100088EA91E602C0019739F02091C0002223B4
:100A2000D4F78091C60008958FEF0895AC0130E0AF
:100A30008FEF14C0FA01E30FF11D9081892720E0A8
:100A40000AC0882334F490E0880F991F97E0892723
:100A500001C0880F2F5F2830A0F33F5F361750F397
:100A600008951F93CF93DF9300D000D000D0CDB76F
:100A7000DEB792E099838A836B834C8363E0CE0177
:100A800002960E9416058D8383E08E8310E00AC0D3
:100A9000E1E0F0E0EC0FFD1FE10FF11D80810E940D
:100AA00001051F5F1630A0F326960FB6F894DEBF3F
:100AB0000FBECDBFDF91CF911F910895EF92FF92AE
:100AC0001F93CF93DF9300D000D000D0CDB7DEB717
:100AD0000E940805823029F060E070E080E090E03C
:100AE00023C082E0898311E00CC0E12EF12C0E942A
:100AF0000805E1E0F0E0EC0FFD1FEE0DFF1D808327
:100B00001F5F163090F363E0CE0102960E94160537
:100B10009D81891729F060E070E080E090E004C0DA
:100B20006A817B818C8191E026960FB6F894DEBFB6
:100B30000FBECDBFDF91CF911F91FF90EF90089531
:100B400040E0682F80E40E943105089597FB072E4E
:100B500016F4009407D077FD09D00E94BA0507FC6F
:100B600005D03EF4909581959F4F089570956195BD
:100B70007F4F0895AA1BBB1B51E107C0AA1FBB1FD3
:100B8000A617B70710F0A61BB70B881F991F5A9519
:100B9000A9F780959095BC01CD010895DC0101C0B5
:100BA0006D9341505040E0F70895AEE0B0E0EBEDBA
:100BB000F5E00C94A4080D891E898F89988D26E094
:100BC0002C831A83098397FF02C080E090E8019785
:100BD0009E838D83AE01455E5F4F698D7A8DCE0118
:100BE00001960E9405064D815E8157FD0AC02F8146
:100BF0003885421753070CF49A01F801E20FF31FEE
:100C000010822E96E4E00C94C008ABE0B0E0EBE07C
:100C1000F6E00C9496086C017B018A01FC011782B6
:100C20001682838181FFCCC1CE0101963C01F60181
:100C30009381F70193FD859193FF81917F01882333
:100C400009F4BAC1853239F493FD859193FF8191FE
:100C50007F01853229F4B60190E00E94FC07E7CFBE
:100C6000912C212C312CFFE1F315D8F08B3279F047
:100C700038F4803279F08332A1F4232D20611DC035
:100C80008D3261F0803369F4232D216016C0832DED
:100C90008260382EE32DE4603E2E2AC0F32DF860EA
:100CA0001DC037FC2DC020ED280F2A3040F08E32B9
:100CB000B9F436FC81C1232D2064322E19C036FED2
:100CC00006C08AE0989E200D1124922E11C0EAE001
:100CD0002E9E200D1124222EF32DF0623F2E08C0EF
:100CE0008C3621F4832D8068382E02C0883641F47A
:100CF000F70193FD859193FF81917F018111B3CF1E
:100D0000982F9F7D9554933028F40C5F1F4F9FE3DD
:100D100099830DC0833631F0833771F0833509F044
:100D200059C021C0F801808189830E5F1F4F88243C
:100D30008394912C530113C02801F2E04F0E511CF3
:100D4000F801A080B18036FE03C0692D70E002C0BA
:100D50006FEF7FEFC5010E94F1074C018201F32D77
:100D6000FF773F2E16C0280122E0420E511CF801E9
:100D7000A080B18036FE03C0692D70E002C06FEF25
:100D80007FEFC5010E94E6074C01F32DF0683F2E6E
:100D9000820133FC1BC0822D90E088169906B0F4C6
:100DA000B60180E290E00E94FC072A94F4CFF5019E
:100DB00037FC859137FE81915F01B60190E00E947A
:100DC000FC0721102A9421E0821A910881149104D1
:100DD00071F7E8C0843611F0893641F5F80137FE25
:100DE00007C060817181828193810C5F1F4F08C0B1
:100DF00060817181072E000C880B990B0E5F1F4FCD
:100E0000F32DFF763F2E97FF09C090958095709542
:100E100061957F4F8F4F9F4FF0683F2E2AE030E063
:100E2000A3010E943808882E861845C0853731F402
:100E3000232D2F7EB22E2AE030E025C0932D997FFE
:100E4000B92E8F36C1F018F4883579F0B5C08037E7
:100E500019F0883721F0B0C0E92FE061BE2EB4FE52
:100E60000DC0FB2DF460BF2E09C034FE0AC0292F2F
:100E70002660B22E06C028E030E005C020E130E058
:100E800002C020E132E0F801B7FE07C06081718145
:100E9000828193810C5F1F4F06C06081718180E069
:100EA00090E00E5F1F4FA3010E943808882E86181D
:100EB000FB2DFF773F2E36FE0DC0232D2E7FA22E59
:100EC000891458F434FE0BC032FC09C0832D8E7E89
:100ED000A82E05C0B82CA32C03C0B82C01C0B92C77
:100EE000A4FE0FC0FE01E80DF11D8081803321F4C6
:100EF0009A2D997EA92E09C0A2FE06C0B394B39480
:100F000004C08A2D867809F0B394A3FC11C0A0FE1A
:100F100006C0B21488F4280C922C9B180EC0B21490
:100F200060F4B60180E290E00E94FC07B394F7CF32
:100F3000B21418F42B1802C0982C212CA4FE10C057
:100F4000B60180E390E00E94FC07A2FE17C0A1FC5E
:100F500003C088E790E002C088E590E0B6010CC0CD
:100F60008A2D867859F0A1FE02C08BE201C080E292
:100F7000A7FC8DE2B60190E00E94FC07891438F4CA
:100F8000B60180E390E00E94FC079A94F7CF8A9420
:100F9000F301E80DF11D8081B60190E00E94FC078D
:100FA0008110F5CF222009F442CEB60180E290E014
:100FB0000E94FC072A94F6CFF6018681978102C031
:100FC0008FEF9FEF2B96E2E10C94B208FC010590A5
:100FD000615070400110D8F7809590958E0F9F1F3B
:100FE0000895FC016150704001900110D8F7809580
:100FF00090958E0F9F1F08950F931F93CF93DF93AC
:10100000FB01238121FD03C08FEF9FEF2CC022FF46
:1010100016C046815781248135814217530744F415
:10102000A081B1819D012F5F3F4F318320838C933D
:10103000268137812F5F3F4F3783268314C08B0172
:10104000EC01FB010084F185E02D0995892BE1F687
:10105000D80116968D919C911797019617969C939F
:101060008E931697CE01DF91CF911F910F91089526
:10107000FA01AA27283051F1203181F1E8946F93C9
:101080006E7F6E5F7F4F8F4F9F4FAF4FB1E03ED06F
:10109000B4E03CD0670F781F891F9A1FA11D680F0D
:1010A000791F8A1F911DA11D6A0F711D811D911D40
:1010B000A11D20D009F468943F912AE0269F1124B5
:1010C0003019305D3193DEF6CF010895462F477019
:1010D000405D4193B3E00FD0C9F7F6CF462F4F7074
:1010E000405D4A3318F0495D31FD4052419302D0D2
:1010F000A9F7EACFB4E0A695979587957795679578
:10110000BA95C9F700976105710508959B01AC0177
:101110000A2E06945795479537952795BA95C9F79E
:10112000620F731F841F951FA01D08952F923F9279
:101130004F925F926F927F928F929F92AF92BF92E7
:10114000CF92DF92EF92FF920F931F93CF93DF9393
:10115000CDB7DEB7CA1BDB0B0FB6F894DEBF0FBEF0
:10116000CDBF09942A88398848885F846E847D843D
:101170008C849B84AA84B984C884DF80EE80FD803F
:101180000C811B81AA81B981CE0FD11D0FB6F894B5
:0E119000DEBF0FBECDBFED010895F894FFCF76
:10119E00FF436D643A203F0057616974696E6720A2
:1011AE00666F7220436D6400436D643A20253032C1
:1011BE00580052656365697665640053656E736F9A
:1011CE0072207472696767657265640080402010D2
:1011DE0008040201010006001A006A00AA01AA060C
:0611EE00AA1AAA6AAAAACF
:00000001FF
