:100000000C9434000C9451000C9451000C94510049
:100010000C9451000C9451000C9451000C9451001C
:100020000C9451000C9451000C9451000C9451000C
:100030000C9451000C9451000C9451000C945100FC
:100040000C9451000C9451000C9451000C945100EC
:100050000C9451000C9451000C9451000C945100DC
:100060000C9451000C94510011241FBECFEFD8E026
:10007000DEBFCDBF11E0A0E0B1E0EAE2F3E002C0F4
:1000800005900D92A031B107D9F721E0A0E1B1E0D0
:1000900001C01D92A031B207E1F70E94F2000C945A
:1000A00093010C9400001092B90088E48093B8008A
:1000B00084E08093BC00089584EA8093BC00809122
:1000C000BC008823E4F7089584E98093BC00809104
:1000D000BC0084FDFCCF08958093BB0084E880932E
:1000E000BC008091BC008823E4F708950F931F9310
:1000F000CF93DF93D82FD07FD62B0D2F086020E130
:10010000829FC0011124C62FC82B1C2F18600E948B
:100110005C008EE40E946C00802F0E946C008D2F8A
:100120008C600E946C00802F0E946C00812F0E94C6
:100130006C008C2F8C600E946C00812F0E946C00E0
:100140000E946400DF91CF911F910F91089560E0AC
:100150000E9476008FE39FE10197F1F700C0000055
:1001600008952FEF80E792E0215080409040E1F722
:1001700000C0000083E00E94A7008FE19EE4019789
:10018000F1F700C0000083E00E94A70087E592E03D
:100190000197F1F700C0000083E00E94A70082E011
:1001A0000E94A70088E20E94A70088E00E94A700A2
:1001B00081E00E94A7008FE39FE10197F1F700C063
:1001C000000086E00E94A7008CE00E94A70008952E
:1001D00081E00E94A7008FE39FE10197F1F700C043
:1001E000000008950E9453000E94B1000E94E800A0
:1001F0000E9457010E9416010E943D0181E00E9469
:1002000083012FEF83E294EF215080409040E1F78B
:1002100000C000000E947C012FEF83E294EF215088
:1002200080409040E1F700C00000E6CF84B18260DA
:1002300084B98AB180648AB983E88093800089E0B8
:100240008093810010928900109288000895E0E860
:10025000F0E080818068808384B1826084B90895F1
:100260001092890010928800E0E8F0E080818F779A
:10027000808385B18D7F85B908950E94270180E034
:1002800090E00EC090938900809388002FE33DE0BA
:1002900043E0215030404040E1F700C000000A96A2
:1002A000893E23E0920770F30E943001089584B1E3
:1002B0008D6184B98AB180688AB985B1827E85B939
:1002C0008BB18F778BB908959FEF980F903160F4C1
:1002D00095B1927E95B995B1E82FF0E0E150FF4FCE
:1002E00080818D71892B85B908958BB18F778BB9FA
:1002F00085B1827E85B908950E94750110928900AA
:10030000109288000895CF93C82F0E947C01CC23BF
:1003100011F08FE001C08EE00E9464018BB1806813
:0A0320008BB9CF910895F894FFCF38
:10032A000010081804140C1C0111091905150D1DDB
:00000001FF
