:100000000C9434000C9451000C9451000C94510049
:100010000C9451000C9451000C9451000C9451001C
:100020000C9451000C9451000C9451000C9451000C
:100030000C9451000C9451000C9451000C945100FC
:100040000C9451000C9451000C9451000C945100EC
:100050000C9451000C9451000C9451000C945100DC
:100060000C9451000C94510011241FBECFEFD8E026
:10007000DEBFCDBF11E0A0E0B1E0ECEEF4E002C0E5
:1000800005900D92AC31B107D9F721E0ACE1B1E0B8
:1000900001C01D92AE31B207E1F70E94BE010C947F
:1000A00074020C9400001092B90088E48093B800A8
:1000B00084E08093BC00089584EA8093BC00809122
:1000C000BC008823E4F7089584E98093BC00809104
:1000D000BC0084FDFCCF08958093BB0084E880932E
:1000E000BC008091BC008823E4F708950F931F9310
:1000F000CF93DF93D82FD07FD62B0D2F086020E130
:10010000829FC0011124C62FC82B1C2F18600E948B
:100110005C008EE40E946C00802F0E946C008D2F8A
:100120008C600E946C00802F0E946C00812F0E94C6
:100130006C008C2F8C600E946C00812F0E946C00E0
:100140000E946400DF91CF911F910F91089560E0AC
:100150000E9476008FE39FE10197F1F700C0000055
:10016000089561E00E9476008FE39FE10197F1F727
:1001700000C0000008952FEF80E792E021508040FA
:100180009040E1F700C0000083E00E94A7008FE1EB
:100190009EE40197F1F700C0000083E00E94A700F1
:1001A00087E592E00197F1F700C0000083E00E942C
:1001B000A70082E00E94A70088E20E94A70088E0D2
:1001C0000E94A70081E00E94A7008FE39FE10197B2
:1001D000F1F700C0000086E00E94A7008CE00E94BA
:1001E000A700089581E00E94A7008FE39FE1019797
:1001F000F1F700C000000895CF93DF9300D000D046
:10020000CDB7DEB7198290E49A8394E19B8394E59D
:100210009C83E1E0F0E0EC0FFD1FE60FF11D908103
:10022000890F80680E94A7000F900F900F900F9089
:10023000DF91CF910895CF93DF93EC0103C0219616
:100240000E94B10088818111FACFDF91CF9108958A
:10025000AF92BF92CF92DF92EF92FF920F931F93D4
:10026000CF93DF93CDB7DEB7FC010DB71EB7DC012E
:100270000D900020E9F711979D01281B390B809103
:100280001D0190E001966FEF70E00E94450280939F
:100290001D019DEC899F912D112492959F70990FBE
:1002A000990F492F440F440F940F981307C081E012
:1002B00090911C01911180E080931C0180911C01A0
:1002C000882329F1CDB6DEB67901FF24C701019656
:1002D0002DB73EB7281B390B0FB6F8943EBF0FBEA3
:1002E0002DBF8DB79EB701965C01A70160E270E05B
:1002F0000E946D02F501EE0DFF1D1082C5010E94E6
:100300001B010FB6F894DEBE0FBECDBE03C0CF01F9
:100310000E941B010FB6F8941EBF0FBE0DBFDF91E8
:10032000CF911F910F91FF90EF90DF90CF90BF90F2
:10033000AF900895EF92FF920F931F93CF93DF93A7
:100340008C017B01EA0160E080E00E94FC00C801B2
:100350000E941B0161E080E00E94FC00219721F4D3
:10036000C7010E94280103C0C7010E941B01DF9141
:10037000CF911F910F91FF90EF900895CF93DF934E
:10038000CDB7DEB7A8970FB6F894DEBF0FBECDBFCE
:100390000E9453000E94BB000E94F2000E940D02C6
:1003A00086E0E0E0F1E0DE01119601900D928A9581
:1003B000E1F786E0E6E0F1E0DE01559601900D926E
:1003C0008A95E1F740E050E0BE016B5E7F4FCE01C1
:1003D00001960E949A012FEF85EA9EE0215080400D
:1003E0009040E1F700C0000081E00E9435022FEF4D
:1003F00083ED90E3215080409040E1F700C0000081
:1004000080E00E9435022FEF83ED90E32150804081
:100410009040E1F700C00000C3CF84B18D6184B982
:100420008AB180688AB985B1827E85B98BB18F77B0
:100430008BB908959FEF980F903160F495B1927E3B
:1004400095B995B1E82FF0E0E55FFE4F80818D71A1
:10045000892B85B908958BB18F778BB985B1827E51
:1004600085B908950E942B020895CF93C82F0E944A
:100470003202CC2311F08FE001C08EE00E941A02FC
:100480008BB180688BB9CF91089597FB072E16F436
:10049000009407D077FD09D00E94590207FC05D0CF
:1004A0003EF4909581959F4F0895709561957F4F8B
:1004B0000895AA1BBB1B51E107C0AA1FBB1FA617AB
:1004C000B70710F0A61BB70B881F991F5A95A9F7FD
:1004D00080959095BC01CD010895DC0101C06D931C
:0C04E00041505040E0F70895F894FFCF21
:1004EC005461626C650052696768740000100818EA
:0C04FC0004140C1C0111091905150D1D3C
:00000001FF
