:100000000C9434000C9451000C9451000C94510049
:100010000C9451000C9451000C9451000C9451001C
:100020000C9451000C9451000C9451000C9451000C
:100030000C9451000C9451000C9452070C945100F4
:100040000C9451000C9451000C9451000C945100EC
:100050000C9451000C9451000C9451000C945100DC
:100060000C9451000C94510011241FBECFEFD8E026
:10007000DEBFCDBF11E0A0E0B1E0E8E4F7E102C0EF
:1000800005900D92A436B107D9F721E0A4E6B1E0BE
:1000900001C01D92AB38B207E1F70E94AB010C948E
:1000A000A20B0C9400000F931F93CF93DF93CDB757
:1000B000DEB761970FB6F894DEBF0FBECDBF80915B
:1000C0006A018F5F80936A018A30B0F110926A01F1
:1000D00080E00E94D501282F392F409100015091D6
:1000E0000101241B350BA90122F444275527421B8B
:1000F000530B4A30510504F18093000190930101A4
:100100009F938F9386E091E09F938F931F9281E15D
:100110008F938E010F5F1F4F1F930F930E94AA08AA
:1001200061E080E00E94CF02C8010E94EE020FB69B
:10013000F894DEBF0FBECDBF61960FB6F894DEBF58
:100140000FBECDBFDF91CF911F910F910895CF9337
:10015000DF9380FF36C08091680190916901892BFF
:1001600021F4709369016093680180916801909116
:1001700069019B01281B390B80916701811127C000
:10018000283E334020F1EB0181E0809367018091AC
:10019000660181110DC081E0809366010E944C04CC
:1001A000109273018FEF809303010E94C50204C077
:1001B000109266010E94C502D0936901C093680144
:1001C00006C0109269011092680110926701809137
:1001D0006601DF91CF9108958091890190918A0104
:1001E0002091640130916501821B930B0A9740F0C6
:1001F0008091890190918A019093650180936401B7
:10020000089583B182958695877091E089278170E2
:100210000895682369F01092710110926C010E9498
:100220004C0440E060916B0183E20E94A5070EC080
:10023000482339F090917101992319F00E94140418
:1002400005C090916C01892B80936C0180916C01A9
:100250000E94DA030895CF93DF930E94BC06809535
:1002600080936D016091890170918A010E94A700BD
:10027000882319F00E9453001FC090916D01809156
:1002800002019817C9F08927C92FC823909302014A
:10029000CC2391F00E940101882311F0D0E801C025
:1002A000D0E10E940101882311F040E401C040E246
:1002B0006D2F8C2F0E940901DF91CF910895CF936C
:1002C000DF9320917201211143C0992309F440C0AA
:1002D000862F90910301691306C0603321F090913D
:1002E0007301911135C0D72FC62F6093030181325E
:1002F000F9F0803319F0803231F508C00E944C04C7
:100300008C2F0E9414080E9465051DC00E944C0499
:100310008C2F0E94140880917301811105C0D09325
:100320006B0181E08093730181E0809371010BC0C8
:1003300070936B01872F0E9472048C2F0E94140807
:1003400081E08093710160916B018C2F0E94910379
:10035000DF91CF9108950E94EA010E942B010E9433
:100360009A040E94750580916D0190910201891790
:1003700021F0809302010E94DA030E94D2070E94BA
:100380005F010E94DC050E94EC00809173018823CC
:1003900021F380916B010E942406DFCF80E48093DB
:1003A0007C0087E880937A0008958770ECE7F0E09E
:1003B0009081987F892B8083EAE7F0E080818064D8
:1003C000808380917A0086FDFCCF809178009091A7
:1003D00079000895CF93DF9300D01F92CDB7DEB799
:1003E0000E9426020E948E020E94C5020E94690796
:1003F0000E9441070E9424070E94DB060E94CE0152
:100400000E9493050E94B10584B1806284B984B1D1
:10041000816084B984B1806184B919821A821B8297
:1004200063E0CE0101960E940B070E944804789475
:1004300040E050E063E171E084E191E00E946D03EF
:100440000F900F900F90DF91CF9108951092B90007
:1004500088E48093B80084E08093BC00089584EA27
:100460008093BC008091BC008823E4F7089584E960
:100470008093BC008091BC0084FDFCCF08958093E4
:10048000BB0084E88093BC008091BC008823E4F723
:1004900008950F931F93CF93DF93D82FD07FD62B40
:1004A0000D2F086020E1829FC0011124C62FC82BA8
:1004B0001C2F18600E942F028EE40E943F02802FA2
:1004C0000E943F028D2F8C600E943F02802F0E946D
:1004D0003F02812F0E943F028C2F8C600E943F02BE
:1004E000812F0E943F020E943702DF91CF911F911E
:1004F0000F91089560E00E9449028FE39FE1019708
:10050000F1F700C00000089561E00E9449028FE306
:100510009FE10197F1F700C0000008952FEF80E7F9
:1005200092E0215080409040E1F700C0000083E05D
:100530000E947A028FE19EE40197F1F700C000006B
:1005400083E00E947A0287E592E00197F1F700C00C
:10055000000083E00E947A0282E00E947A0288E230
:100560000E947A0288E00E947A0281E00E947A0268
:100570008FE39FE10197F1F700C0000086E00E9441
:100580007A028CE00E947A02089581E00E947A0249
:100590008FE39FE10197F1F700C000000895CF932A
:1005A000DF9300D000D0CDB7DEB7198290E49A83F4
:1005B00094E19B8394E59C83E1E0F0E0EC0FFD1F68
:1005C000E60FF11D9081890F80680E947A020F90DA
:1005D0000F900F900F90DF91CF910895CF93DF93FD
:1005E000EC0103C021960E94840288818111FACF18
:1005F000DF91CF910895AF92BF92CF92DF92EF92A9
:10060000FF920F931F93CF93DF93CDB7DEB7FC011B
:100610000DB71EB7DC010D900020E9F711979D0181
:10062000281B390B8091750190E001966FEF70E007
:100630000E947B08809375019DEC899F912D112468
:1006400092959F70990F990F492F440F440F940F63
:10065000981307C081E090917401911180E080931C
:10066000740180917401882329F1CDB6DEB6790139
:10067000FF24C70101962DB73EB7281B390B0FB6D3
:10068000F8943EBF0FBE2DBF8DB79EB701965C019B
:10069000A70160E270E00E94A308F501EE0DFF1DC6
:1006A0001082C5010E94EE020FB6F894DEBE0FBEA6
:1006B000CDBE03C0CF010E94EE020FB6F8941EBF5C
:1006C0000FBE0DBFDF91CF911F910F91FF90EF9063
:1006D000DF90CF90BF90AF900895EF92FF920F936D
:1006E0001F93CF93DF938C017B01EA0160E080E0F0
:1006F0000E94CF02C8010E94EE0261E080E00E94E9
:10070000CF02219721F4C7010E94FB0203C0C70159
:100710000E94EE02DF91CF911F910F91FF90EF9019
:1007200008950F931F93CF93DF93CDB7DEB76197F3
:100730000FB6F894DEBF0FBECDBF1F926F931F920E
:100740008F9384E291E09F938F931F9281E18F9327
:100750008E010F5F1F4F1F930F930E94AA08F8018D
:1007600001900020E9F73197E01B0FB6F894DEBF47
:100770000FBECDBF09C0A1E0B0E0AC0FBD1FAE0FF2
:10078000B11D80E28C93EF5FE031A8F3198A60E03D
:1007900080E00E94CF02CE0101960E94EE02619697
:1007A0000FB6F894DEBF0FBECDBFDF91CF911F9182
:1007B0000F910895CF93DF93CDB7DEB761970FB652
:1007C000F894DEBF0FBECDBF90E01AC0292F30E0F5
:1007D00067E070E0621B730B482F50E002C0559534
:1007E00047956A95E2F740FF02C041E301C040E34C
:1007F000E1E0F0E0EC0FFD1FE20FF31F40839F5F8D
:10080000983020F3198661E080E00E94CF02CE018B
:1008100001960E94EE0261960FB6F894DEBF0FBEFD
:10082000CDBFDF91CF9108950E94A1058FE790E0A1
:100830009093890080938800089585B1816085B97F
:1008400085B1806185B908951F93CF93DF9300D060
:100850001F92CDB7DEB7182F85B18F7D85B90E9465
:100860001D0419821A821B82E12FF0E0EA5CFE4F20
:1008700080818B8363E0CE0101960E940B070E946A
:10088000C0050F900F900F90DF91CF911F910895A9
:1008900085B18E7F85B90895CF93DF9300D01F92E5
:1008A000CDB7DEB785B18F7D85B985B18F7E85B92E
:1008B0000E94B10519821A821B8263E0CE01019663
:1008C0000E940B070E942106109273010E944804A7
:1008D0000F900F900F90DF91CF91089585B18062B6
:1008E00085B908951F93CF93DF9300D01F92CDB7A2
:1008F000DEB71FEF180F0E944C040E946E040E9486
:100900001D040E94C00519821A821B82E12FF0E0AB
:10091000EA5CFE4F80818B8363E0CE0101960E94EA
:100920000B07109273010F900F900F90DF91CF91F2
:100930001F910895CF9380E00E94D5019C01809182
:100940007D01811108C030937C0120937B0181E0FF
:1009500080937D0128C040917B0150917C0160E033
:1009600070E0DB01CA01880F991FAA1FBB1F880F07
:10097000991FAA1FBB1F880F991FAA1FBB1F841B8B
:10098000950BA60BB70B820F931FA11DB11D689489
:1009900012F8B695A795979587951694D1F79093E9
:1009A0007C0180937B0180917A01882321F0813042
:1009B00009F450C088C080917B0190917C018C3BF0
:1009C000924008F442C08091780190917901892B7E
:1009D00041F48091890190918A01909379018093EB
:1009E00078018091890190918A012091780130915C
:1009F0007901821B930BC29708F465C00E944C04D6
:100A00001092710110927301C1E0C093720140E035
:100A100060E082E30E9447080E94C50240E050E087
:100A20006EE371E087E491E00E946D03809189019B
:100A300090918A019093770180937601C0937A0117
:100A400010927901109278013EC0109279011092B3
:100A5000780139C080917B0190917C018C3B924060
:100A6000D0F08091890190918A0120917601309196
:100A70007701821B930B80369A4E68F040E060E06D
:100A800082E30E9447088091890190918A019093A6
:100A900077018093760180917B0190917C018F3961
:100AA000924088F41092720140E060E083E30E947B
:100AB00047080E94C50260916B01809103010E946A
:100AC000910310927A01CF910895109270011092C3
:100AD0006F0110926E0108950E944C0410927101F2
:100AE0000E94650510927301089580917101882319
:100AF000C9F080916F0190917001019690937001FF
:100B000080936F018031974268F0109270011092CB
:100B10006F0180916E018F5F80936E018E3110F0B6
:100B20000E946C05089584B1826084B981E8809345
:100B3000800089E0809381001092890010928800E3
:100B40000895109289001092880085B1806185B95E
:100B5000E0E8F0E080818068808384B1826084B9BD
:100B60000895109282011092890010928800E0E8A6
:100B7000F0E080818F77808385B18D7F85B908957E
:100B800010920501109204011092890010928800C1
:100B90000E94A1058091890190918A01A0E0B0E0B6
:100BA00080937E0190937F01A0938001B093810197
:100BB00081E080938201089580918201882309F465
:100BC0003FC08091890190918A01A0E0B0E04091FE
:100BD0007E0150917F016091800170918101841BA1
:100BE000950BA60BB70BC297A105B10548F18091F3
:100BF000890190918A01A0E0B0E080937E019093FA
:100C00007F01A0938001B0938101809104019091B4
:100C100005018F3F910509F060F49C012F5F3F4F64
:100C200030930501209304019093890080938800FC
:100C3000089585B18F7E85B90E94B1051092820119
:100C400008951092880108950F931F93CF93DF9317
:100C500000D01F92CDB7DEB7182F0E941D046FEF92
:100C6000610F19821A821B8280918801811113C041
:100C7000109287018091890190918A01A0E0B0E0F3
:100C80008093830190938401A0938501B0938601A2
:100C900081E0809388018091890190918A01A0E090
:100CA000B0E0009183011091840120918501309181
:100CB0008601801B910BA20BB30B843F9140A105D1
:100CC000B10508F451C08091890190918A01A0E09A
:100CD000B0E08093830190938401A0938501B09349
:100CE000860104C081E0890F80938701909187017C
:100CF0009031A0F4E62FF0E0EE0FFF1FEF5AFE4F09
:100D00004081518121E030E0092E02C0220F331FC3
:100D10000A94E2F724233523232B21F39031E8F4BE
:100D2000983038F481E001C0880F9A95EAF78983FA
:100D300009C0892F90E0089791E001C0990F8A952A
:100D4000EAF79A8363E0CE0101960E940B07809137
:100D500087018F5F8093870107C0862F0E9424043C
:100D600010927301109288010F900F900F90DF91F5
:100D7000CF911F910F9108958BB18F7B8BB900C0DC
:100D800000C000008BB180648BB920E080E010C00F
:100D9000880F9BB19F7D9BB900C000C000004F9998
:100DA00081609BB190629BB900C000C000002F5FC2
:100DB000283070F308958AB18C618AB98BB1837E33
:100DC0008BB9089590E01CC047E050E0491B5109E1
:100DD000282F30E002C0359527954A95E2F720FF8D
:100DE00004C02BB124602BB903C02BB12B7F2BB9CE
:100DF0002BB128602BB900002BB1277F2BB99F5F47
:100E0000983010F308958BB180618BB900008BB1DD
:100E10008F7E8BB908950F931F93CF93DF938C012F
:100E2000C62FD0E0219707C0F801EC0FFD1F80818D
:100E30000E94E2062197DD23BCF70E940307DF91A1
:100E4000CF911F910F910895CF93DF9300D01F9200
:100E5000CDB7DEB78AB180668AB98AB18F778AB991
:100E60008BB18F778BB919821A821B8263E0CE0116
:100E700001960E940B070F900F900F90DF91CF917A
:100E8000089584B5826084BD85B5836085BD89EF92
:100E900087BDEEE6F0E080818260808380818260A1
:100EA000808308951F920F920FB60F9211248F9393
:100EB0009F938091890190918A01019690938A0174
:100EC000809389019F918F910F900FBE0F901F907B
:100ED00018951092C50087E68093C40088E180933E
:100EE000C10086E08093C20008959091C00095FFF4
:100EF000FCCF8093C600089588EA91E602C001976E
:100F000039F02091C0002223D4F78091C6000895C3
:100F10008FEF0895AC0130E08FEF14C0FA01E30FBA
:100F2000F11D9081892720E00AC0882334F490E0E5
:100F3000880F991F97E0892701C0880F2F5F2830FD
:100F4000A0F33F5F361750F308951F93CF93DF93BD
:100F500000D000D000D0CDB7DEB792E099838A836D
:100F60006B834C8363E0CE0102960E948A078D83D7
:100F700083E08E8310E00AC0E1E0F0E0EC0FFD1F9B
:100F8000E10FF11D80810E9475071F5F1630A0F3ED
:100F900026960FB6F894DEBF0FBECDBFDF91CF917E
:100FA0001F910895EF92FF921F93CF93DF9300D08C
:100FB00000D000D0CDB7DEB70E947C07823029F088
:100FC00060E070E080E090E023C082E0898311E07F
:100FD0000CC0E12EF12C0E947C07E1E0F0E0EC0F68
:100FE000FD1FEE0DFF1D80831F5F163090F363E041
:100FF000CE0102960E948A079D81891729F060E040
:1010000070E080E090E004C06A817B818C8191E097
:1010100026960FB6F894DEBF0FBECDBFDF91CF91FD
:101020001F91FF90EF90089540E0682F80E40E94A8
:10103000A50708950F931F93CF938C010E947C07FF
:101040008230E1F4F8018083C1E007C00E947C0790
:10105000F801EC0FF11D8083CF5FC630B8F3F801C3
:101060008581833069F463E0C80101960E948A0794
:10107000F8019481891731F080E005C080E003C059
:1010800080E001C081E0CF911F910F910895EF9210
:10109000FF920F931F93CF93DF9300D000D000D027
:1010A000CDB7DEB7082FE62EF42E10E012C04F2D7C
:1010B0006E2D802F0E94A507CE0101960E941A086E
:1010C000882331F08A81803419F48B81081729F044
:1010D0001F5F133060F380E001C081E026960FB6F9
:1010E000F894DEBF0FBECDBFDF91CF911F910F915E
:1010F000FF90EF90089597FB072E16F4009407D009
:1011000077FD09D00E948F0807FC05D03EF490952A
:1011100081959F4F0895709561957F4F0895AA1B03
:10112000BB1B51E107C0AA1FBB1FA617B70710F0D2
:10113000A61BB70B881F991F5A95A9F78095909504
:10114000BC01CD010895DC0101C06D9341505040B8
:10115000E0F70895AEE0B0E0E0EBF8E00C94790B36
:101160000D891E898F89988D26E02C831A83098327
:1011700097FF02C080E090E801979E838D83AE01C7
:10118000455E5F4F698D7A8DCE0101960E94DA0827
:101190004D815E8157FD0AC02F8138854217530764
:1011A0000CF49A01F801E20FF31F10822E96E4E08E
:1011B0000C94950BABE0B0E0E0EEF8E00C946B0B18
:1011C0006C017B018A01FC0117821682838181FFF9
:1011D000CCC1CE0101963C01F6019381F70193FD4C
:1011E000859193FF81917F01882309F4BAC18532EB
:1011F00039F493FD859193FF81917F01853229F424
:10120000B60190E00E94D10AE7CF912C212C312C1D
:10121000FFE1F315D8F08B3279F038F4803279F0B1
:101220008332A1F4232D20611DC08D3261F0803303
:1012300069F4232D216016C0832D8260382EE32DA2
:10124000E4603E2E2AC0F32DF8601DC037FC2DC08F
:1012500020ED280F2A3040F08E32B9F436FC81C1DF
:10126000232D2064322E19C036FE06C08AE0989ED7
:10127000200D1124922E11C0EAE02E9E200D112483
:10128000222EF32DF0623F2E08C08C3621F4832DE0
:101290008068382E02C0883641F4F70193FD8591AD
:1012A00093FF81917F018111B3CF982F9F7D95543A
:1012B000933028F40C5F1F4F9FE399830DC0833652
:1012C00031F0833771F0833509F059C021C0F8013E
:1012D000808189830E5F1F4F88248394912C530152
:1012E00013C02801F2E04F0E511CF801A080B1801C
:1012F00036FE03C0692D70E002C06FEF7FEFC501BD
:101300000E94C60A4C018201F32DFF773F2E16C0C2
:10131000280122E0420E511CF801A080B18036FE67
:1013200003C0692D70E002C06FEF7FEFC5010E941E
:10133000BB0A4C01F32DF0683F2E820133FC1BC029
:10134000822D90E088169906B0F4B60180E290E014
:101350000E94D10A2A94F4CFF50137FC859137FE1B
:1013600081915F01B60190E00E94D10A21102A9478
:1013700021E0821A91088114910471F7E8C0843643
:1013800011F0893641F5F80137FE07C0608171819F
:10139000828193810C5F1F4F08C060817181072E8D
:1013A000000C880B990B0E5F1F4FF32DFF763F2E1D
:1013B00097FF09C090958095709561957F4F8F4FED
:1013C0009F4FF0683F2E2AE030E0A3010E940D0BF2
:1013D000882E861845C0853731F4232D2F7EB22EF6
:1013E0002AE030E025C0932D997FB92E8F36C1F0C9
:1013F00018F4883579F0B5C0803719F0883721F0B6
:10140000B0C0E92FE061BE2EB4FE0DC0FB2DF4602C
:10141000BF2E09C034FE0AC0292F2660B22E06C096
:1014200028E030E005C020E130E002C020E132E0F9
:10143000F801B7FE07C060817181828193810C5FE2
:101440001F4F06C06081718180E090E00E5F1F4FEA
:10145000A3010E940D0B882E8618FB2DFF773F2ECF
:1014600036FE0DC0232D2E7FA22E891458F434FE93
:101470000BC032FC09C0832D8E7EA82E05C0B82C6F
:10148000A32C03C0B82C01C0B92CA4FE0FC0FE01D0
:10149000E80DF11D8081803321F49A2D997EA92ECB
:1014A00009C0A2FE06C0B394B39404C08A2D867806
:1014B00009F0B394A3FC11C0A0FE06C0B21488F4D6
:1014C000280C922C9B180EC0B21460F4B60180E276
:1014D00090E00E94D10AB394F7CFB21418F42B18FD
:1014E00002C0982C212CA4FE10C0B60180E390E02D
:1014F0000E94D10AA2FE17C0A1FC03C088E790E0B9
:1015000002C088E590E0B6010CC08A2D867859F0BB
:10151000A1FE02C08BE201C080E2A7FC8DE2B60111
:1015200090E00E94D10A891438F4B60180E390E07B
:101530000E94D10A9A94F7CF8A94F301E80DF11D25
:101540008081B60190E00E94D10A8110F5CF22205F
:1015500009F442CEB60180E290E00E94D10A2A94BA
:10156000F6CFF6018681978102C08FEF9FEF2B9611
:10157000E2E10C94870BFC01059061507040011072
:10158000D8F7809590958E0F9F1F0895FC016150AC
:10159000704001900110D8F7809590958E0F9F1F95
:1015A00008950F931F93CF93DF93FB01238121FDB8
:1015B00003C08FEF9FEF2CC022FF16C046815781DA
:1015C000248135814217530744F4A081B1819D01E4
:1015D0002F5F3F4F318320838C93268137812F5F8C
:1015E0003F4F3783268314C08B01EC01FB0100843D
:1015F000F185E02D0995892BE1F6D80116968D919C
:101600009C911797019617969C938E931697CE01EF
:10161000DF91CF911F910F910895FA01AA272830E9
:1016200051F1203181F1E8946F936E7F6E5F7F4FAF
:101630008F4F9F4FAF4FB1E03ED0B4E03CD0670F2B
:10164000781F891F9A1FA11D680F791F8A1F911D7E
:10165000A11D6A0F711D811D911DA11D20D009F4CE
:1016600068943F912AE0269F11243019305D319310
:10167000DEF6CF010895462F4770405D4193B3E0F9
:101680000FD0C9F7F6CF462F4F70405D4A3318F0A0
:10169000495D31FD4052419302D0A9F7EACFB4E051
:1016A000A6959795879577956795BA95C9F7009709
:1016B0006105710508959B01AC010A2E06945795AA
:1016C000479537952795BA95C9F7620F731F841F01
:1016D000951FA01D08952F923F924F925F926F9297
:1016E0007F928F929F92AF92BF92CF92DF92EF92B2
:1016F000FF920F931F93CF93DF93CDB7DEB7CA1B33
:10170000DB0B0FB6F894DEBF0FBECDBF09942A885D
:10171000398848885F846E847D848C849B84AA8405
:10172000B984C884DF80EE80FD800C811B81AA8192
:10173000B981CE0FD11D0FB6F894DEBF0FBECDBF5D
:08174000ED010895F894FFCFBC
:10174800FFFFFFFF64004144433A20253475202001
:101758002020200057616974696E6720666F7220C7
:10176800436D6400434D443A253033642054424C61
:101778003A253032640001020408102040804F5698
:1017880045524C4F414400454D455247454E4359FB
:1017980000010006001A006A00AA01AA06AA1AAAED
:0417A8006AAAAA007F
:00000001FF
