:100000000C9434000C9451000C9451000C94510049
:100010000C9451000C9451000C9451000C9451001C
:100020000C9451000C9451000C9451000C9451000C
:100030000C9451000C9451000C946F070C945100D7
:100040000C9451000C9451000C9451000C945100EC
:100050000C9451000C9451000C9451000C945100DC
:100060000C9451000C94510011241FBECFEFD8E026
:10007000DEBFCDBF11E0A0E0B1E0E2E8F7E102C0F1
:1000800005900D92A437B107D9F721E0A4E7B1E0BC
:1000900001C01D92AB39B207E1F70E94FD000C943C
:1000A000BF0B0C94000083B182958695877091E018
:1000B000892781700895682369F010928101109258
:1000C0007C010E945E0440E060917B0183E20E941B
:1000D000C2070EC0482339F090918101992319F08D
:1000E0000E94260405C090917C01892B80937C019D
:1000F00080917C010E94EC030895CF93DF930E94CE
:10010000D906809580937D016091990170919A0143
:100110000E94A001882319F00E944C011FC09091F9
:100120007D01809102019817C9F08927C92FC82342
:1001300090930201CC2391F00E945300882311F088
:10014000D0E801C0D0E10E945300882311F040E4C0
:1001500001C040E26D2F8C2F0E945B00DF91CF9198
:100160000895CF93DF9320918201211143C09923F9
:1001700009F440C0862F90910301691306C06033D3
:1001800021F090918301911135C0D72FC62F609334
:1001900003018132F9F0803319F0803231F508C063
:1001A0000E945E048C2F0E9431080E9482051DC0AF
:1001B0000E945E048C2F0E9431088091830181117E
:1001C00005C0D0937B0181E08093830181E080931F
:1001D00081010BC070937B01872F0E9484048C2FB8
:1001E0000E94310881E08093810160917B018C2F16
:1001F0000E94A303DF91CF9108950E94FC010E9409
:100200007D000E9414050E94920580917D019091CD
:100210000201891721F0809302010E94EC030E94E1
:10022000EF070E94B1000E94F9050E94E70180914A
:100230008301882321F380917B010E944106DFCF57
:10024000CF93C82F682F80E00E94E10286E091E002
:100250000E9400036C2F80E00E94E102CF9108957C
:1002600080E480937C0087E880937A00089587700B
:10027000ECE7F0E09081987F892B8083EAE7F0E05B
:1002800080818064808380917A0086FDFCCF80919C
:1002900078009091790008950F931F93CF93DF9387
:1002A000CDB7DEB761970FB6F894DEBF0FBECDBFF6
:1002B00080917A018F5F80937A018A30B0F1109239
:1002C0007A0180E00E943701282F392F40910001E8
:1002D00050910101241B350BA90122F44427552715
:1002E000421B530B4A30510504F180930001909357
:1002F00001019F938F9387E191E09F938F931F92CA
:1003000081E18F938E010F5F1F4F1F930F930E9408
:10031000C70861E080E00E94E102C8010E9400037A
:100320000FB6F894DEBF0FBECDBF61960FB6F8943E
:10033000DEBF0FBECDBFDF91CF911F910F9108950A
:10034000CF93DF9380FF38C080917801909179013D
:10035000892B21F470937901609378018091780161
:10036000909179019B01281B390B809177018111B4
:1003700029C0283E334030F1EB0181E080937701C2
:100380008091760181110EC081E0809376010E94F8
:100390005E04109283018FEF8093030181E00E943D
:1003A000200105C01092760181E00E942001D093C7
:1003B0007901C093780106C01092790110927801FA
:1003C0001092770180917601DF91CF91089580910D
:1003D000990190919A012091740130917501821BCD
:1003E000930B0A9740F08091990190919A01909314
:1003F0007501809374010895CF93DF9300D01F920D
:10040000CDB7DEB70E9438020E94A0020E94D70238
:100410000E9486070E945E070E9441070E94F8061C
:100420000E9430010E94B0050E94CE0584B1806216
:1004300084B984B1816084B984B1806184B919823E
:100440001A821B8263E0CE0101960E9428070E9457
:100450005A04789440E050E066E171E085E291E072
:100460000E947F030F900F900F90DF91CF9108951E
:100470001092B90088E48093B80084E08093BC00B7
:10048000089584EA8093BC008091BC008823E4F73F
:10049000089584E98093BC008091BC0084FDFCCF6A
:1004A00008958093BB0084E88093BC008091BC00D9
:1004B0008823E4F708950F931F93CF93DF93D82FEA
:1004C000D07FD62B0D2F086020E1829FC001112420
:1004D000C62FC82B1C2F18600E9441028EE40E9478
:1004E0005102802F0E9451028D2F8C600E94510278
:1004F000802F0E945102812F0E9451028C2F8C600C
:100500000E945102812F0E9451020E944902DF91F4
:10051000CF911F910F91089560E00E945B028FE3DD
:100520009FE10197F1F700C00000089561E00E948B
:100530005B028FE39FE10197F1F700C0000008958F
:100540002FEF80E792E0215080409040E1F700C01B
:10055000000083E00E948C028FE19EE40197F1F796
:1005600000C0000083E00E948C0287E592E00197C2
:10057000F1F700C0000083E00E948C0282E00E943C
:100580008C0288E20E948C0288E00E948C0281E04A
:100590000E948C028FE39FE10197F1F700C00000F9
:1005A00086E00E948C028CE00E948C02089581E01B
:1005B0000E948C028FE39FE10197F1F700C00000D9
:1005C0000895CF93DF9300D000D0CDB7DEB7198266
:1005D00090E49A8394E19B8394E59C83E1E0F0E0CE
:1005E000EC0FFD1FE60FF11D9081890F80680E94BE
:1005F0008C020F900F900F900F90DF91CF91089584
:10060000CF93DF93EC0103C021960E94960288816C
:100610008111FACFDF91CF910895AF92BF92CF921F
:10062000DF92EF92FF920F931F93CF93DF93CDB79B
:10063000DEB7FC010DB71EB7DC010D900020E9F715
:1006400011979D01281B390B8091850190E001963F
:100650006FEF70E00E949808809385019DEC899F60
:10066000912D112492959F70990F990F492F440F46
:10067000440F940F981307C081E090918401911169
:1006800080E08093840180918401882329F1CDB694
:10069000DEB67901FF24C70101962DB73EB7281BAE
:1006A000390B0FB6F8943EBF0FBE2DBF8DB79EB766
:1006B00001965C01A70160E270E00E94C008F501AC
:1006C000EE0DFF1D1082C5010E9400030FB6F894C5
:1006D000DEBE0FBECDBE03C0CF010E9400030FB629
:1006E000F8941EBF0FBE0DBFDF91CF911F910F91E8
:1006F000FF90EF90DF90CF90BF90AF900895EF9272
:10070000FF920F931F93CF93DF938C017B01EA013C
:1007100060E080E00E94E102C8010E94000361E005
:1007200080E00E94E102219721F4C7010E940D039D
:1007300003C0C7010E940003DF91CF911F910F9169
:10074000FF90EF9008950F931F93CF93DF93CDB752
:10075000DEB761970FB6F894DEBF0FBECDBF1F9214
:100760006F931F928F9385E391E09F938F931F92D6
:1007700081E18F938E010F5F1F4F1F930F930E9494
:10078000C708F80101900020E9F73197E01B0FB688
:10079000F894DEBF0FBECDBF09C0A1E0B0E0AC0F42
:1007A000BD1FAE0FB11D80E28C93EF5FE031A8F367
:1007B000198A60E080E00E94E102CE0101960E9469
:1007C000000361960FB6F894DEBF0FBECDBFDF9178
:1007D000CF911F910F910895CF93DF93CDB7DEB7DF
:1007E00061970FB6F894DEBF0FBECDBF90E01AC080
:1007F000292F30E067E070E0621B730B482F50E058
:1008000002C0559547956A95E2F740FF02C041E363
:1008100001C040E3E1E0F0E0EC0FFD1FE20FF31F49
:1008200040839F5F983020F3198661E080E00E944A
:10083000E102CE0101960E94000361960FB6F89482
:10084000DEBF0FBECDBFDF91CF9108950E94BE05E0
:100850008FE790E09093890080938800089585B198
:10086000816085B985B1806185B908951F93CF9363
:10087000DF9300D01F92CDB7DEB7182F85B18F7DE3
:1008800085B90E942F0419821A821B82E12FF0E0A1
:10089000E95BFE4F80818B8363E0CE0101960E946D
:1008A00028070E94DD050F900F900F90DF91CF91E8
:1008B0001F91089585B18E7F85B90895CF93DF93F9
:1008C00000D01F92CDB7DEB785B18F7D85B985B1D8
:1008D0008F7E85B90E94CE0519821A821B8263E041
:1008E000CE0101960E9428070E943E0610928301C5
:1008F0000E945A040F900F900F90DF91CF910895AE
:1009000085B1806285B908951F93CF93DF9300D09E
:100910001F92CDB7DEB71FEF180F0E945E040E9432
:1009200080040E942F040E94DD0519821A821B8216
:10093000E12FF0E0E95BFE4F80818B8363E0CE0125
:1009400001960E942807109283010F900F900F903C
:10095000DF91CF911F910895CF930E945E04109272
:10096000810110928301C1E0C093820140E060E008
:1009700082E30E9464080E94D70240E050E06FE4E6
:1009800071E088E591E00E947F0380919901909148
:100990009A0190938A018093890110928C011092A0
:1009A0008B01C0938D01CF910895CF93DF93EB011D
:1009B000209187013091880128173907D0F0809164
:1009C000990190919A012091890130918A01821BAD
:1009D000930B80369A4E68F040E060E082E30E941C
:1009E00064088091990190919A0190938A01809373
:1009F00089018091870190918801C817D90788F0F3
:100A00001092820140E060E083E30E9464080E944B
:100A1000D70260917B01809103010E94A303109291
:100A20008D01DF91CF91089580E00E9437019C01F4
:100A3000409187015091880180918601811105C004
:100A400081E080938601C90120C060E070E0DB0195
:100A5000CA01880F991FAA1FBB1F880F991FAA1FC1
:100A6000BB1F880F991FAA1FBB1F841B950BA60BCA
:100A7000B70B820F931FA11DB11D689412F8B69594
:100A8000A795979587951694D1F7909388018093B1
:100A9000870120918D01222319F0213061F1089501
:100AA0008C3B9240F0F080918B0190918C01892BCE
:100AB00041F48091990190919A0190938C018093D7
:100AC0008B012091990130919A0180918B01909135
:100AD0008C01281B390B81E02233310538F480E08A
:100AE00005C010928C0110928B0180E0882349F0A0
:100AF0000E94AC0408956EE972E08CEB92E00E94D3
:100B0000D50408951092800110927F0110927E0109
:100B100008950E945E04109281010E948205109245
:100B200083010895809181018823C9F080917F011C
:100B30009091800101969093800180937F01803194
:100B4000974268F01092800110927F0180917E019F
:100B50008F5F80937E018E3110F00E948905089589
:100B600084B1826084B981E88093800089E08093B9
:100B700081001092890010928800089510928900D7
:100B80001092880085B1806185B9E0E8F0E080814D
:100B90008068808384B1826084B908951092920144
:100BA0001092890010928800E0E8F0E080818F7751
:100BB000808385B18D7F85B90895109205011092CB
:100BC000040110928900109288000E94BE05809155
:100BD000990190919A01A0E0B0E080938E019093EA
:100BE0008F01A0939001B093910181E080939201D5
:100BF000089580919201882309F43FC08091990162
:100C000090919A01A0E0B0E040918E0150918F0147
:100C10006091900170919101841B950BA60BB70B0D
:100C2000C297A105B10548F18091990190919A016F
:100C3000A0E0B0E080938E0190938F01A09390018B
:100C4000B093910180910401909105018F3F91052E
:100C500009F060F49C012F5F3F4F30930501209312
:100C600004019093890080938800089585B18F7E58
:100C700085B90E94CE0510929201089510929801B4
:100C800008950F931F93CF93DF9300D01F92CDB79A
:100C9000DEB7182F0E942F046FEF610F19821A829E
:100CA0001B8280919801811113C01092970180914D
:100CB000990190919A01A0E0B0E080939301909304
:100CC0009401A0939501B093960181E080939801DF
:100CD0008091990190919A01A0E0B0E00091930178
:100CE000109194012091950130919601801B910BF8
:100CF000A20BB30B843F9140A105B10508F451C08C
:100D00008091990190919A01A0E0B0E080939301C5
:100D100090939401A0939501B093960104C081E053
:100D2000890F80939701909197019031A0F4E62F5D
:100D3000F0E0EE0FFF1FEE59FE4F4081518121E0A0
:100D400030E0092E02C0220F331F0A94E2F7242359
:100D50003523232B21F39031E8F4983038F481E0E7
:100D600001C0880F9A95EAF7898309C0892F90E01E
:100D7000089791E001C0990F8A95EAF79A8363E09A
:100D8000CE0101960E942807809197018F5F809382
:100D9000970107C0862F0E9436041092830110929B
:100DA00098010F900F900F90DF91CF911F910F91AD
:100DB00008958BB18F7B8BB900C000C000008BB150
:100DC00080648BB920E080E010C0880F9BB19F7DCC
:100DD0009BB900C000C000004F9981609BB1906238
:100DE0009BB900C000C000002F5F283070F3089549
:100DF0008AB18C618AB98BB1837E8BB9089590E0FA
:100E00001CC047E050E0491B5109282F30E002C0C8
:100E1000359527954A95E2F720FF04C02BB1246051
:100E20002BB903C02BB12B7F2BB92BB128602BB969
:100E300000002BB1277F2BB99F5F983010F30895E6
:100E40008BB180618BB900008BB18F7E8BB9089517
:100E50000F931F93CF93DF938C01C62FD0E0219780
:100E600007C0F801EC0FFD1F80810E94FF0621974B
:100E7000DD23BCF70E942007DF91CF911F910F91D6
:100E80000895CF93DF9300D01F92CDB7DEB78AB11C
:100E900080668AB98AB18F778AB98BB18F778BB91F
:100EA00019821A821B8263E0CE0101960E942807F4
:100EB0000F900F900F90DF91CF91089584B58260CD
:100EC00084BD85B5836085BD89EF87BDEEE6F0E022
:100ED00080818260808380818260808308951F92F8
:100EE0000F920FB60F9211248F939F9380919901C7
:100EF00090919A01019690939A01809399019F9104
:100F00008F910F900FBE0F901F9018951092C500F3
:100F100087E68093C40088E18093C10086E08093D7
:100F2000C20008959091C00095FFFCCF8093C60049
:100F3000089588EA91E602C0019739F02091C00037
:100F40002223D4F78091C60008958FEF0895AC0155
:100F500030E08FEF14C0FA01E30FF11D9081892773
:100F600020E00AC0882334F490E0880F991F97E0AE
:100F7000892701C0880F2F5F2830A0F33F5F361705
:100F800050F308951F93CF93DF9300D000D000D08B
:100F9000CDB7DEB792E099838A836B834C8363E09D
:100FA000CE0102960E94A7078D8383E08E8310E016
:100FB0000AC0E1E0F0E0EC0FFD1FE10FF11D8081C0
:100FC0000E9492071F5F1630A0F326960FB6F89482
:100FD000DEBF0FBECDBFDF91CF911F910895EF927D
:100FE000FF921F93CF93DF9300D000D000D0CDB7F6
:100FF000DEB70E949907823029F060E070E080E05F
:1010000090E023C082E0898311E00CC0E12EF12C36
:101010000E949907E1E0F0E0EC0FFD1FEE0DFF1DCF
:1010200080831F5F163090F363E0CE0102960E942A
:10103000A7079D81891729F060E070E080E090E0CB
:1010400004C06A817B818C8191E026960FB6F8946A
:10105000DEBF0FBECDBFDF91CF911F91FF90EF900C
:10106000089540E0682F80E40E94C20708950F931E
:101070001F93CF938C010E9499078230E1F4F8010D
:101080008083C1E007C00E949907F801EC0FF11DB1
:101090008083CF5FC630B8F3F8018581833069F46F
:1010A00063E0C80101960E94A707F801948189179F
:1010B00031F080E005C080E003C080E001C081E045
:1010C000CF911F910F910895EF92FF920F931F936D
:1010D000CF93DF9300D000D000D0CDB7DEB7082F7C
:1010E000E62EF42E10E012C04F2D6E2D802F0E94A0
:1010F000C207CE0101960E943708882331F08A8109
:10110000803419F48B81081729F01F5F133060F3C6
:1011100080E001C081E026960FB6F894DEBF0FBED6
:10112000CDBFDF91CF911F910F91FF90EF90089568
:1011300097FB072E16F4009407D077FD09D00E9484
:10114000AC0807FC05D03EF4909581959F4F08951B
:10115000709561957F4F0895AA1BBB1B51E107C095
:10116000AA1FBB1FA617B70710F0A61BB70B881F37
:10117000991F5A95A9F780959095BC01CD010895C6
:10118000DC0101C06D9341505040E0F70895AEE09E
:10119000B0E0EDECF8E00C94960B0D891E898F8978
:1011A000988D26E02C831A83098397FF02C080E084
:1011B00090E801979E838D83AE01455E5F4F698DF8
:1011C0007A8DCE0101960E94F7084D815E8157FD10
:1011D0000AC02F813885421753070CF49A01F80191
:1011E000E20FF31F10822E96E4E00C94B20BABE0FA
:1011F000B0E0EDEFF8E00C94880B6C017B018A0104
:10120000FC0117821682838181FFCCC1CE01019639
:101210003C01F6019381F70193FD859193FF819144
:101220007F01882309F4BAC1853239F493FD859191
:1012300093FF81917F01853229F4B60190E00E94ED
:10124000EE0AE7CF912C212C312CFFE1F315D8F0D9
:101250008B3279F038F4803279F08332A1F4232D87
:1012600020611DC08D3261F0803369F4232D21602F
:1012700016C0832D8260382EE32DE4603E2E2AC0F6
:10128000F32DF8601DC037FC2DC020ED280F2A304B
:1012900040F08E32B9F436FC81C1232D2064322E09
:1012A00019C036FE06C08AE0989E200D1124922EA9
:1012B00011C0EAE02E9E200D1124222EF32DF062A3
:1012C0003F2E08C08C3621F4832D8068382E02C052
:1012D000883641F4F70193FD859193FF81917F0159
:1012E0008111B3CF982F9F7D9554933028F40C5FD4
:1012F0001F4F9FE399830DC0833631F0833771F020
:10130000833509F059C021C0F801808189830E5FBF
:101310001F4F88248394912C530113C02801F2E0BD
:101320004F0E511CF801A080B18036FE03C0692D1C
:1013300070E002C06FEF7FEFC5010E94E30A4C012D
:101340008201F32DFF773F2E16C0280122E0420EC6
:10135000511CF801A080B18036FE03C0692D70E0F9
:1013600002C06FEF7FEFC5010E94D80A4C01F32D38
:10137000F0683F2E820133FC1BC0822D90E088165E
:101380009906B0F4B60180E290E00E94EE0A2A9439
:10139000F4CFF50137FC859137FE81915F01B601ED
:1013A00090E00E94EE0A21102A9421E0821A91080E
:1013B0008114910471F7E8C0843611F0893641F543
:1013C000F80137FE07C060817181828193810C5FD3
:1013D0001F4F08C060817181072E000C880B990B8C
:1013E0000E5F1F4FF32DFF763F2E97FF09C090959C
:1013F0008095709561957F4F8F4F9F4FF0683F2E7E
:101400002AE030E0A3010E942A0B882E861845C0EE
:10141000853731F4232D2F7EB22E2AE030E025C00F
:10142000932D997FB92E8F36C1F018F4883579F055
:10143000B5C0803719F0883721F0B0C0E92FE061DE
:10144000BE2EB4FE0DC0FB2DF460BF2E09C034FECD
:101450000AC0292F2660B22E06C028E030E005C061
:1014600020E130E002C020E132E0F801B7FE07C021
:1014700060817181828193810C5F1F4F06C0608102
:10148000718180E090E00E5F1F4FA3010E942A0B44
:10149000882E8618FB2DFF773F2E36FE0DC0232D9C
:1014A0002E7FA22E891458F434FE0BC032FC09C0E2
:1014B000832D8E7EA82E05C0B82CA32C03C0B82C7B
:1014C00001C0B92CA4FE0FC0FE01E80DF11D808102
:1014D000803321F49A2D997EA92E09C0A2FE06C060
:1014E000B394B39404C08A2D867809F0B394A3FC16
:1014F00011C0A0FE06C0B21488F4280C922C9B18D0
:101500000EC0B21460F4B60180E290E00E94EE0AD0
:10151000B394F7CFB21418F42B1802C0982C212CD6
:10152000A4FE10C0B60180E390E00E94EE0AA2FE85
:1015300017C0A1FC03C088E790E002C088E590E0F6
:10154000B6010CC08A2D867859F0A1FE02C08BE24C
:1015500001C080E2A7FC8DE2B60190E00E94EE0A95
:10156000891438F4B60180E390E00E94EE0A9A9460
:10157000F7CF8A94F301E80DF11D8081B60190E068
:101580000E94EE0A8110F5CF222009F442CEB60166
:1015900080E290E00E94EE0A2A94F6CFF60186815E
:1015A000978102C08FEF9FEF2B96E2E10C94A40B82
:1015B000FC010590615070400110D8F7809590951E
:1015C0008E0F9F1F0895FC01615070400190011023
:1015D000D8F7809590958E0F9F1F08950F931F93B6
:1015E000CF93DF93FB01238121FD03C08FEF9FEF9A
:1015F0002CC022FF16C046815781248135814217B5
:10160000530744F4A081B1819D012F5F3F4F318387
:1016100020838C93268137812F5F3F4F378326832A
:1016200014C08B01EC01FB010084F185E02D0995CC
:10163000892BE1F6D80116968D919C91179701960A
:1016400017969C938E931697CE01DF91CF911F91A1
:101650000F910895FA01AA27283051F1203181F124
:10166000E8946F936E7F6E5F7F4F8F4F9F4FAF4FAA
:10167000B1E03ED0B4E03CD0670F781F891F9A1FBD
:10168000A11D680F791F8A1F911DA11D6A0F711D71
:10169000811D911DA11D20D009F468943F912AE07D
:1016A000269F11243019305D3193DEF6CF01089565
:1016B000462F4770405D4193B3E00FD0C9F7F6CF96
:1016C000462F4F70405D4A3318F0495D31FD40525E
:1016D000419302D0A9F7EACFB4E0A69597958795F4
:1016E00077956795BA95C9F70097610571050895D3
:1016F0009B01AC010A2E069457954795379527957F
:10170000BA95C9F7620F731F841F951FA01D089516
:101710002F923F924F925F926F927F928F929F9201
:10172000AF92BF92CF92DF92EF92FF920F931F93EF
:10173000CF93DF93CDB7DEB7CA1BDB0B0FB6F894A0
:10174000DEBF0FBECDBF09942A88398848885F84E0
:101750006E847D848C849B84AA84B984C884DF8051
:10176000EE80FD800C811B81AA81B981CE0FD11D35
:101770000FB6F894DEBF0FBECDBFED010895F8940B
:02178000FFCF99
:10178200FFFFFFFF640020202020202020202020B7
:10179200202020202020004144433A202534752077
:1017A200202020200057616974696E6720666F727D
:1017B20020436D6400434D443A2530336420544243
:1017C2004C3A253032640001020408102040804F58
:1017D2005645524C4F414400454D455247454E43B4
:1017E2005900010006001A006A00AA01AA06AA1AF4
:0417F200AA6AAAAA8B
:00000001FF
